{
	"contracts/ganache.sol": {
		"ganache": {
			"abi": [
				{
					"inputs": [],
					"stateMutability": "nonpayable",
					"type": "constructor"
				},
				{
					"anonymous": false,
					"inputs": [
						{
							"indexed": false,
							"internalType": "address",
							"name": "owner",
							"type": "address"
						},
						{
							"indexed": false,
							"internalType": "address",
							"name": "smartContract",
							"type": "address"
						}
					],
					"name": "newContract",
					"type": "event"
				},
				{
					"anonymous": false,
					"inputs": [
						{
							"indexed": false,
							"internalType": "string",
							"name": "mensaje",
							"type": "string"
						}
					],
					"name": "newMessage",
					"type": "event"
				},
				{
					"inputs": [],
					"name": "owner",
					"outputs": [
						{
							"internalType": "address",
							"name": "",
							"type": "address"
						}
					],
					"stateMutability": "view",
					"type": "function"
				},
				{
					"inputs": [
						{
							"internalType": "string",
							"name": "_message",
							"type": "string"
						}
					],
					"name": "setMessage",
					"outputs": [],
					"stateMutability": "nonpayable",
					"type": "function"
				},
				{
					"inputs": [],
					"name": "smartContract",
					"outputs": [
						{
							"internalType": "address",
							"name": "",
							"type": "address"
						}
					],
					"stateMutability": "view",
					"type": "function"
				}
			],
			"devdoc": {
				"kind": "dev",
				"methods": {},
				"version": 1
			},
			"evm": {
				"assembly": "    /* \"contracts/ganache.sol\":63:529  contract ganache {\r... */\n  mstore(0x40, 0x80)\n    /* \"contracts/ganache.sol\":151:170  string message = \"\" */\n  mload(0x40)\n  dup1\n  0x20\n  add\n  0x40\n  mstore\n  dup1\n  0x00\n  dup2\n  mstore\n  pop\n  0x02\n  swap1\n  dup1\n  mload\n  swap1\n  0x20\n  add\n  swap1\n  tag_1\n  swap3\n  swap2\n  swap1\n  tag_2\n  jump\t// in\ntag_1:\n  pop\n    /* \"contracts/ganache.sol\":282:422  constructor() {\r... */\n  callvalue\n  dup1\n  iszero\n  tag_3\n  jumpi\n  0x00\n  dup1\n  revert\ntag_3:\n  pop\n    /* \"contracts/ganache.sol\":315:325  msg.sender */\n  caller\n    /* \"contracts/ganache.sol\":307:312  owner */\n  0x00\n  dup1\n    /* \"contracts/ganache.sol\":307:325  owner = msg.sender */\n  0x0100\n  exp\n  dup2\n  sload\n  dup2\n  0xffffffffffffffffffffffffffffffffffffffff\n  mul\n  not\n  and\n  swap1\n  dup4\n  0xffffffffffffffffffffffffffffffffffffffff\n  and\n  mul\n  or\n  swap1\n  sstore\n  pop\n    /* \"contracts/ganache.sol\":360:364  this */\n  address\n    /* \"contracts/ganache.sol\":336:349  smartContract */\n  0x01\n  0x00\n    /* \"contracts/ganache.sol\":336:365  smartContract = address(this) */\n  0x0100\n  exp\n  dup2\n  sload\n  dup2\n  0xffffffffffffffffffffffffffffffffffffffff\n  mul\n  not\n  and\n  swap1\n  dup4\n  0xffffffffffffffffffffffffffffffffffffffff\n  and\n  mul\n  or\n  swap1\n  sstore\n  pop\n    /* \"contracts/ganache.sol\":381:414  newContract(owner, smartContract) */\n  0xe4f1e239ef633924ba611260f27425b0855d45f598b69b49f08f8dd9b2cc0fac\n    /* \"contracts/ganache.sol\":393:398  owner */\n  0x00\n  dup1\n  sload\n  swap1\n  0x0100\n  exp\n  swap1\n  div\n  0xffffffffffffffffffffffffffffffffffffffff\n  and\n    /* \"contracts/ganache.sol\":400:413  smartContract */\n  0x01\n  0x00\n  swap1\n  sload\n  swap1\n  0x0100\n  exp\n  swap1\n  div\n  0xffffffffffffffffffffffffffffffffffffffff\n  and\n    /* \"contracts/ganache.sol\":381:414  newContract(owner, smartContract) */\n  mload(0x40)\n  tag_6\n  swap3\n  swap2\n  swap1\n  tag_7\n  jump\t// in\ntag_6:\n  mload(0x40)\n  dup1\n  swap2\n  sub\n  swap1\n  log1\n    /* \"contracts/ganache.sol\":63:529  contract ganache {\r... */\n  jump(tag_8)\ntag_2:\n  dup3\n  dup1\n  sload\n  tag_9\n  swap1\n  tag_10\n  jump\t// in\ntag_9:\n  swap1\n  0x00\n  mstore\n  keccak256(0x00, 0x20)\n  swap1\n  0x1f\n  add\n  0x20\n  swap1\n  div\n  dup2\n  add\n  swap3\n  dup3\n  tag_12\n  jumpi\n  0x00\n  dup6\n  sstore\n  jump(tag_11)\ntag_12:\n  dup3\n  0x1f\n  lt\n  tag_13\n  jumpi\n  dup1\n  mload\n  not(0xff)\n  and\n  dup4\n  dup1\n  add\n  or\n  dup6\n  sstore\n  jump(tag_11)\ntag_13:\n  dup3\n  dup1\n  add\n  0x01\n  add\n  dup6\n  sstore\n  dup3\n  iszero\n  tag_11\n  jumpi\n  swap2\n  dup3\n  add\ntag_14:\n  dup3\n  dup2\n  gt\n  iszero\n  tag_15\n  jumpi\n  dup3\n  mload\n  dup3\n  sstore\n  swap2\n  0x20\n  add\n  swap2\n  swap1\n  0x01\n  add\n  swap1\n  jump(tag_14)\ntag_15:\ntag_11:\n  pop\n  swap1\n  pop\n  tag_16\n  swap2\n  swap1\n  tag_17\n  jump\t// in\ntag_16:\n  pop\n  swap1\n  jump\t// out\ntag_17:\ntag_18:\n  dup1\n  dup3\n  gt\n  iszero\n  tag_19\n  jumpi\n  0x00\n  dup2\n  0x00\n  swap1\n  sstore\n  pop\n  0x01\n  add\n  jump(tag_18)\ntag_19:\n  pop\n  swap1\n  jump\t// out\n    /* \"#utility.yul\":7:125   */\ntag_21:\n    /* \"#utility.yul\":94:118   */\n  tag_23\n    /* \"#utility.yul\":112:117   */\n  dup2\n    /* \"#utility.yul\":94:118   */\n  tag_24\n  jump\t// in\ntag_23:\n    /* \"#utility.yul\":89:92   */\n  dup3\n    /* \"#utility.yul\":82:119   */\n  mstore\n    /* \"#utility.yul\":72:125   */\n  pop\n  pop\n  jump\t// out\n    /* \"#utility.yul\":131:463   */\ntag_7:\n    /* \"#utility.yul\":252:256   */\n  0x00\n    /* \"#utility.yul\":290:292   */\n  0x40\n    /* \"#utility.yul\":279:288   */\n  dup3\n    /* \"#utility.yul\":275:293   */\n  add\n    /* \"#utility.yul\":267:293   */\n  swap1\n  pop\n    /* \"#utility.yul\":303:374   */\n  tag_26\n    /* \"#utility.yul\":371:372   */\n  0x00\n    /* \"#utility.yul\":360:369   */\n  dup4\n    /* \"#utility.yul\":356:373   */\n  add\n    /* \"#utility.yul\":347:353   */\n  dup6\n    /* \"#utility.yul\":303:374   */\n  tag_21\n  jump\t// in\ntag_26:\n    /* \"#utility.yul\":384:456   */\n  tag_27\n    /* \"#utility.yul\":452:454   */\n  0x20\n    /* \"#utility.yul\":441:450   */\n  dup4\n    /* \"#utility.yul\":437:455   */\n  add\n    /* \"#utility.yul\":428:434   */\n  dup5\n    /* \"#utility.yul\":384:456   */\n  tag_21\n  jump\t// in\ntag_27:\n    /* \"#utility.yul\":257:463   */\n  swap4\n  swap3\n  pop\n  pop\n  pop\n  jump\t// out\n    /* \"#utility.yul\":469:565   */\ntag_24:\n    /* \"#utility.yul\":506:513   */\n  0x00\n    /* \"#utility.yul\":535:559   */\n  tag_29\n    /* \"#utility.yul\":553:558   */\n  dup3\n    /* \"#utility.yul\":535:559   */\n  tag_30\n  jump\t// in\ntag_29:\n    /* \"#utility.yul\":524:559   */\n  swap1\n  pop\n    /* \"#utility.yul\":514:565   */\n  swap2\n  swap1\n  pop\n  jump\t// out\n    /* \"#utility.yul\":571:697   */\ntag_30:\n    /* \"#utility.yul\":608:615   */\n  0x00\n    /* \"#utility.yul\":648:690   */\n  0xffffffffffffffffffffffffffffffffffffffff\n    /* \"#utility.yul\":641:646   */\n  dup3\n    /* \"#utility.yul\":637:691   */\n  and\n    /* \"#utility.yul\":626:691   */\n  swap1\n  pop\n    /* \"#utility.yul\":616:697   */\n  swap2\n  swap1\n  pop\n  jump\t// out\n    /* \"#utility.yul\":703:1023   */\ntag_10:\n    /* \"#utility.yul\":747:753   */\n  0x00\n    /* \"#utility.yul\":784:785   */\n  0x02\n    /* \"#utility.yul\":778:782   */\n  dup3\n    /* \"#utility.yul\":774:786   */\n  div\n    /* \"#utility.yul\":764:786   */\n  swap1\n  pop\n    /* \"#utility.yul\":831:832   */\n  0x01\n    /* \"#utility.yul\":825:829   */\n  dup3\n    /* \"#utility.yul\":821:833   */\n  and\n    /* \"#utility.yul\":852:870   */\n  dup1\n    /* \"#utility.yul\":842:844   */\n  tag_33\n  jumpi\n    /* \"#utility.yul\":908:912   */\n  0x7f\n    /* \"#utility.yul\":900:906   */\n  dup3\n    /* \"#utility.yul\":896:913   */\n  and\n    /* \"#utility.yul\":886:913   */\n  swap2\n  pop\n    /* \"#utility.yul\":842:844   */\ntag_33:\n    /* \"#utility.yul\":970:972   */\n  0x20\n    /* \"#utility.yul\":962:968   */\n  dup3\n    /* \"#utility.yul\":959:973   */\n  lt\n    /* \"#utility.yul\":939:957   */\n  dup2\n    /* \"#utility.yul\":936:974   */\n  eq\n    /* \"#utility.yul\":933:935   */\n  iszero\n  tag_34\n  jumpi\n    /* \"#utility.yul\":989:1007   */\n  tag_35\n  tag_36\n  jump\t// in\ntag_35:\n    /* \"#utility.yul\":933:935   */\ntag_34:\n    /* \"#utility.yul\":754:1023   */\n  pop\n  swap2\n  swap1\n  pop\n  jump\t// out\n    /* \"#utility.yul\":1029:1209   */\ntag_36:\n    /* \"#utility.yul\":1077:1154   */\n  0x4e487b7100000000000000000000000000000000000000000000000000000000\n    /* \"#utility.yul\":1074:1075   */\n  0x00\n    /* \"#utility.yul\":1067:1155   */\n  mstore\n    /* \"#utility.yul\":1174:1178   */\n  0x22\n    /* \"#utility.yul\":1171:1172   */\n  0x04\n    /* \"#utility.yul\":1164:1179   */\n  mstore\n    /* \"#utility.yul\":1198:1202   */\n  0x24\n    /* \"#utility.yul\":1195:1196   */\n  0x00\n    /* \"#utility.yul\":1188:1203   */\n  revert\n    /* \"contracts/ganache.sol\":63:529  contract ganache {\r... */\ntag_8:\n  dataSize(sub_0)\n  dup1\n  dataOffset(sub_0)\n  0x00\n  codecopy\n  0x00\n  return\nstop\n\nsub_0: assembly {\n        /* \"contracts/ganache.sol\":63:529  contract ganache {\r... */\n      mstore(0x40, 0x80)\n      callvalue\n      dup1\n      iszero\n      tag_1\n      jumpi\n      0x00\n      dup1\n      revert\n    tag_1:\n      pop\n      jumpi(tag_2, lt(calldatasize, 0x04))\n      shr(0xe0, calldataload(0x00))\n      dup1\n      0x368b8772\n      eq\n      tag_3\n      jumpi\n      dup1\n      0x8da5cb5b\n      eq\n      tag_4\n      jumpi\n      dup1\n      0xf62639e5\n      eq\n      tag_5\n      jumpi\n    tag_2:\n      0x00\n      dup1\n      revert\n        /* \"contracts/ganache.sol\":430:518  function setMessage(string memory _message) public {\r... */\n    tag_3:\n      tag_6\n      0x04\n      dup1\n      calldatasize\n      sub\n      dup2\n      add\n      swap1\n      tag_7\n      swap2\n      swap1\n      tag_8\n      jump\t// in\n    tag_7:\n      tag_9\n      jump\t// in\n    tag_6:\n      stop\n        /* \"contracts/ganache.sol\":89:109  address public owner */\n    tag_4:\n      tag_10\n      tag_11\n      jump\t// in\n    tag_10:\n      mload(0x40)\n      tag_12\n      swap2\n      swap1\n      tag_13\n      jump\t// in\n    tag_12:\n      mload(0x40)\n      dup1\n      swap2\n      sub\n      swap1\n      return\n        /* \"contracts/ganache.sol\":116:144  address public smartContract */\n    tag_5:\n      tag_14\n      tag_15\n      jump\t// in\n    tag_14:\n      mload(0x40)\n      tag_16\n      swap2\n      swap1\n      tag_13\n      jump\t// in\n    tag_16:\n      mload(0x40)\n      dup1\n      swap2\n      sub\n      swap1\n      return\n        /* \"contracts/ganache.sol\":430:518  function setMessage(string memory _message) public {\r... */\n    tag_9:\n        /* \"contracts/ganache.sol\":502:510  _message */\n      dup1\n        /* \"contracts/ganache.sol\":492:499  message */\n      0x02\n        /* \"contracts/ganache.sol\":492:510  message = _message */\n      swap1\n      dup1\n      mload\n      swap1\n      0x20\n      add\n      swap1\n      tag_18\n      swap3\n      swap2\n      swap1\n      tag_19\n      jump\t// in\n    tag_18:\n      pop\n        /* \"contracts/ganache.sol\":430:518  function setMessage(string memory _message) public {\r... */\n      pop\n      jump\t// out\n        /* \"contracts/ganache.sol\":89:109  address public owner */\n    tag_11:\n      0x00\n      dup1\n      sload\n      swap1\n      0x0100\n      exp\n      swap1\n      div\n      0xffffffffffffffffffffffffffffffffffffffff\n      and\n      dup2\n      jump\t// out\n        /* \"contracts/ganache.sol\":116:144  address public smartContract */\n    tag_15:\n      0x01\n      0x00\n      swap1\n      sload\n      swap1\n      0x0100\n      exp\n      swap1\n      div\n      0xffffffffffffffffffffffffffffffffffffffff\n      and\n      dup2\n      jump\t// out\n    tag_19:\n      dup3\n      dup1\n      sload\n      tag_20\n      swap1\n      tag_21\n      jump\t// in\n    tag_20:\n      swap1\n      0x00\n      mstore\n      keccak256(0x00, 0x20)\n      swap1\n      0x1f\n      add\n      0x20\n      swap1\n      div\n      dup2\n      add\n      swap3\n      dup3\n      tag_23\n      jumpi\n      0x00\n      dup6\n      sstore\n      jump(tag_22)\n    tag_23:\n      dup3\n      0x1f\n      lt\n      tag_24\n      jumpi\n      dup1\n      mload\n      not(0xff)\n      and\n      dup4\n      dup1\n      add\n      or\n      dup6\n      sstore\n      jump(tag_22)\n    tag_24:\n      dup3\n      dup1\n      add\n      0x01\n      add\n      dup6\n      sstore\n      dup3\n      iszero\n      tag_22\n      jumpi\n      swap2\n      dup3\n      add\n    tag_25:\n      dup3\n      dup2\n      gt\n      iszero\n      tag_26\n      jumpi\n      dup3\n      mload\n      dup3\n      sstore\n      swap2\n      0x20\n      add\n      swap2\n      swap1\n      0x01\n      add\n      swap1\n      jump(tag_25)\n    tag_26:\n    tag_22:\n      pop\n      swap1\n      pop\n      tag_27\n      swap2\n      swap1\n      tag_28\n      jump\t// in\n    tag_27:\n      pop\n      swap1\n      jump\t// out\n    tag_28:\n    tag_29:\n      dup1\n      dup3\n      gt\n      iszero\n      tag_30\n      jumpi\n      0x00\n      dup2\n      0x00\n      swap1\n      sstore\n      pop\n      0x01\n      add\n      jump(tag_29)\n    tag_30:\n      pop\n      swap1\n      jump\t// out\n        /* \"#utility.yul\":7:352   */\n    tag_32:\n        /* \"#utility.yul\":85:90   */\n      0x00\n        /* \"#utility.yul\":110:176   */\n      tag_34\n        /* \"#utility.yul\":126:175   */\n      tag_35\n        /* \"#utility.yul\":168:174   */\n      dup5\n        /* \"#utility.yul\":126:175   */\n      tag_36\n      jump\t// in\n    tag_35:\n        /* \"#utility.yul\":110:176   */\n      tag_37\n      jump\t// in\n    tag_34:\n        /* \"#utility.yul\":101:176   */\n      swap1\n      pop\n        /* \"#utility.yul\":199:205   */\n      dup3\n        /* \"#utility.yul\":192:197   */\n      dup2\n        /* \"#utility.yul\":185:206   */\n      mstore\n        /* \"#utility.yul\":237:241   */\n      0x20\n        /* \"#utility.yul\":230:235   */\n      dup2\n        /* \"#utility.yul\":226:242   */\n      add\n        /* \"#utility.yul\":275:278   */\n      dup5\n        /* \"#utility.yul\":266:272   */\n      dup5\n        /* \"#utility.yul\":261:264   */\n      dup5\n        /* \"#utility.yul\":257:273   */\n      add\n        /* \"#utility.yul\":254:279   */\n      gt\n        /* \"#utility.yul\":251:253   */\n      iszero\n      tag_38\n      jumpi\n        /* \"#utility.yul\":292:293   */\n      0x00\n        /* \"#utility.yul\":289:290   */\n      dup1\n        /* \"#utility.yul\":282:294   */\n      revert\n        /* \"#utility.yul\":251:253   */\n    tag_38:\n        /* \"#utility.yul\":305:346   */\n      tag_39\n        /* \"#utility.yul\":339:345   */\n      dup5\n        /* \"#utility.yul\":334:337   */\n      dup3\n        /* \"#utility.yul\":329:332   */\n      dup6\n        /* \"#utility.yul\":305:346   */\n      tag_40\n      jump\t// in\n    tag_39:\n        /* \"#utility.yul\":91:352   */\n      pop\n      swap4\n      swap3\n      pop\n      pop\n      pop\n      jump\t// out\n        /* \"#utility.yul\":372:645   */\n    tag_41:\n        /* \"#utility.yul\":428:433   */\n      0x00\n        /* \"#utility.yul\":477:480   */\n      dup3\n        /* \"#utility.yul\":470:474   */\n      0x1f\n        /* \"#utility.yul\":462:468   */\n      dup4\n        /* \"#utility.yul\":458:475   */\n      add\n        /* \"#utility.yul\":454:481   */\n      slt\n        /* \"#utility.yul\":444:446   */\n      tag_43\n      jumpi\n        /* \"#utility.yul\":495:496   */\n      0x00\n        /* \"#utility.yul\":492:493   */\n      dup1\n        /* \"#utility.yul\":485:497   */\n      revert\n        /* \"#utility.yul\":444:446   */\n    tag_43:\n        /* \"#utility.yul\":535:541   */\n      dup2\n        /* \"#utility.yul\":522:542   */\n      calldataload\n        /* \"#utility.yul\":560:639   */\n      tag_44\n        /* \"#utility.yul\":635:638   */\n      dup5\n        /* \"#utility.yul\":627:633   */\n      dup3\n        /* \"#utility.yul\":620:624   */\n      0x20\n        /* \"#utility.yul\":612:618   */\n      dup7\n        /* \"#utility.yul\":608:625   */\n      add\n        /* \"#utility.yul\":560:639   */\n      tag_32\n      jump\t// in\n    tag_44:\n        /* \"#utility.yul\":551:639   */\n      swap2\n      pop\n        /* \"#utility.yul\":434:645   */\n      pop\n      swap3\n      swap2\n      pop\n      pop\n      jump\t// out\n        /* \"#utility.yul\":651:1026   */\n    tag_8:\n        /* \"#utility.yul\":720:726   */\n      0x00\n        /* \"#utility.yul\":769:771   */\n      0x20\n        /* \"#utility.yul\":757:766   */\n      dup3\n        /* \"#utility.yul\":748:755   */\n      dup5\n        /* \"#utility.yul\":744:767   */\n      sub\n        /* \"#utility.yul\":740:772   */\n      slt\n        /* \"#utility.yul\":737:739   */\n      iszero\n      tag_46\n      jumpi\n        /* \"#utility.yul\":785:786   */\n      0x00\n        /* \"#utility.yul\":782:783   */\n      dup1\n        /* \"#utility.yul\":775:787   */\n      revert\n        /* \"#utility.yul\":737:739   */\n    tag_46:\n        /* \"#utility.yul\":856:857   */\n      0x00\n        /* \"#utility.yul\":845:854   */\n      dup3\n        /* \"#utility.yul\":841:858   */\n      add\n        /* \"#utility.yul\":828:859   */\n      calldataload\n        /* \"#utility.yul\":886:904   */\n      0xffffffffffffffff\n        /* \"#utility.yul\":878:884   */\n      dup2\n        /* \"#utility.yul\":875:905   */\n      gt\n        /* \"#utility.yul\":872:874   */\n      iszero\n      tag_47\n      jumpi\n        /* \"#utility.yul\":918:919   */\n      0x00\n        /* \"#utility.yul\":915:916   */\n      dup1\n        /* \"#utility.yul\":908:920   */\n      revert\n        /* \"#utility.yul\":872:874   */\n    tag_47:\n        /* \"#utility.yul\":946:1009   */\n      tag_48\n        /* \"#utility.yul\":1001:1008   */\n      dup5\n        /* \"#utility.yul\":992:998   */\n      dup3\n        /* \"#utility.yul\":981:990   */\n      dup6\n        /* \"#utility.yul\":977:999   */\n      add\n        /* \"#utility.yul\":946:1009   */\n      tag_41\n      jump\t// in\n    tag_48:\n        /* \"#utility.yul\":936:1009   */\n      swap2\n      pop\n        /* \"#utility.yul\":799:1019   */\n      pop\n        /* \"#utility.yul\":727:1026   */\n      swap3\n      swap2\n      pop\n      pop\n      jump\t// out\n        /* \"#utility.yul\":1032:1150   */\n    tag_49:\n        /* \"#utility.yul\":1119:1143   */\n      tag_51\n        /* \"#utility.yul\":1137:1142   */\n      dup2\n        /* \"#utility.yul\":1119:1143   */\n      tag_52\n      jump\t// in\n    tag_51:\n        /* \"#utility.yul\":1114:1117   */\n      dup3\n        /* \"#utility.yul\":1107:1144   */\n      mstore\n        /* \"#utility.yul\":1097:1150   */\n      pop\n      pop\n      jump\t// out\n        /* \"#utility.yul\":1156:1378   */\n    tag_13:\n        /* \"#utility.yul\":1249:1253   */\n      0x00\n        /* \"#utility.yul\":1287:1289   */\n      0x20\n        /* \"#utility.yul\":1276:1285   */\n      dup3\n        /* \"#utility.yul\":1272:1290   */\n      add\n        /* \"#utility.yul\":1264:1290   */\n      swap1\n      pop\n        /* \"#utility.yul\":1300:1371   */\n      tag_54\n        /* \"#utility.yul\":1368:1369   */\n      0x00\n        /* \"#utility.yul\":1357:1366   */\n      dup4\n        /* \"#utility.yul\":1353:1370   */\n      add\n        /* \"#utility.yul\":1344:1350   */\n      dup5\n        /* \"#utility.yul\":1300:1371   */\n      tag_49\n      jump\t// in\n    tag_54:\n        /* \"#utility.yul\":1254:1378   */\n      swap3\n      swap2\n      pop\n      pop\n      jump\t// out\n        /* \"#utility.yul\":1384:1513   */\n    tag_37:\n        /* \"#utility.yul\":1418:1424   */\n      0x00\n        /* \"#utility.yul\":1445:1465   */\n      tag_56\n      tag_57\n      jump\t// in\n    tag_56:\n        /* \"#utility.yul\":1435:1465   */\n      swap1\n      pop\n        /* \"#utility.yul\":1474:1507   */\n      tag_58\n        /* \"#utility.yul\":1502:1506   */\n      dup3\n        /* \"#utility.yul\":1494:1500   */\n      dup3\n        /* \"#utility.yul\":1474:1507   */\n      tag_59\n      jump\t// in\n    tag_58:\n        /* \"#utility.yul\":1425:1513   */\n      swap2\n      swap1\n      pop\n      jump\t// out\n        /* \"#utility.yul\":1519:1594   */\n    tag_57:\n        /* \"#utility.yul\":1552:1558   */\n      0x00\n        /* \"#utility.yul\":1585:1587   */\n      0x40\n        /* \"#utility.yul\":1579:1588   */\n      mload\n        /* \"#utility.yul\":1569:1588   */\n      swap1\n      pop\n        /* \"#utility.yul\":1559:1594   */\n      swap1\n      jump\t// out\n        /* \"#utility.yul\":1600:1908   */\n    tag_36:\n        /* \"#utility.yul\":1662:1666   */\n      0x00\n        /* \"#utility.yul\":1752:1770   */\n      0xffffffffffffffff\n        /* \"#utility.yul\":1744:1750   */\n      dup3\n        /* \"#utility.yul\":1741:1771   */\n      gt\n        /* \"#utility.yul\":1738:1740   */\n      iszero\n      tag_62\n      jumpi\n        /* \"#utility.yul\":1774:1792   */\n      tag_63\n      tag_64\n      jump\t// in\n    tag_63:\n        /* \"#utility.yul\":1738:1740   */\n    tag_62:\n        /* \"#utility.yul\":1812:1841   */\n      tag_65\n        /* \"#utility.yul\":1834:1840   */\n      dup3\n        /* \"#utility.yul\":1812:1841   */\n      tag_66\n      jump\t// in\n    tag_65:\n        /* \"#utility.yul\":1804:1841   */\n      swap1\n      pop\n        /* \"#utility.yul\":1896:1900   */\n      0x20\n        /* \"#utility.yul\":1890:1894   */\n      dup2\n        /* \"#utility.yul\":1886:1901   */\n      add\n        /* \"#utility.yul\":1878:1901   */\n      swap1\n      pop\n        /* \"#utility.yul\":1667:1908   */\n      swap2\n      swap1\n      pop\n      jump\t// out\n        /* \"#utility.yul\":1914:2010   */\n    tag_52:\n        /* \"#utility.yul\":1951:1958   */\n      0x00\n        /* \"#utility.yul\":1980:2004   */\n      tag_68\n        /* \"#utility.yul\":1998:2003   */\n      dup3\n        /* \"#utility.yul\":1980:2004   */\n      tag_69\n      jump\t// in\n    tag_68:\n        /* \"#utility.yul\":1969:2004   */\n      swap1\n      pop\n        /* \"#utility.yul\":1959:2010   */\n      swap2\n      swap1\n      pop\n      jump\t// out\n        /* \"#utility.yul\":2016:2142   */\n    tag_69:\n        /* \"#utility.yul\":2053:2060   */\n      0x00\n        /* \"#utility.yul\":2093:2135   */\n      0xffffffffffffffffffffffffffffffffffffffff\n        /* \"#utility.yul\":2086:2091   */\n      dup3\n        /* \"#utility.yul\":2082:2136   */\n      and\n        /* \"#utility.yul\":2071:2136   */\n      swap1\n      pop\n        /* \"#utility.yul\":2061:2142   */\n      swap2\n      swap1\n      pop\n      jump\t// out\n        /* \"#utility.yul\":2148:2302   */\n    tag_40:\n        /* \"#utility.yul\":2232:2238   */\n      dup3\n        /* \"#utility.yul\":2227:2230   */\n      dup2\n        /* \"#utility.yul\":2222:2225   */\n      dup4\n        /* \"#utility.yul\":2209:2239   */\n      calldatacopy\n        /* \"#utility.yul\":2294:2295   */\n      0x00\n        /* \"#utility.yul\":2285:2291   */\n      dup4\n        /* \"#utility.yul\":2280:2283   */\n      dup4\n        /* \"#utility.yul\":2276:2292   */\n      add\n        /* \"#utility.yul\":2269:2296   */\n      mstore\n        /* \"#utility.yul\":2199:2302   */\n      pop\n      pop\n      pop\n      jump\t// out\n        /* \"#utility.yul\":2308:2628   */\n    tag_21:\n        /* \"#utility.yul\":2352:2358   */\n      0x00\n        /* \"#utility.yul\":2389:2390   */\n      0x02\n        /* \"#utility.yul\":2383:2387   */\n      dup3\n        /* \"#utility.yul\":2379:2391   */\n      div\n        /* \"#utility.yul\":2369:2391   */\n      swap1\n      pop\n        /* \"#utility.yul\":2436:2437   */\n      0x01\n        /* \"#utility.yul\":2430:2434   */\n      dup3\n        /* \"#utility.yul\":2426:2438   */\n      and\n        /* \"#utility.yul\":2457:2475   */\n      dup1\n        /* \"#utility.yul\":2447:2449   */\n      tag_73\n      jumpi\n        /* \"#utility.yul\":2513:2517   */\n      0x7f\n        /* \"#utility.yul\":2505:2511   */\n      dup3\n        /* \"#utility.yul\":2501:2518   */\n      and\n        /* \"#utility.yul\":2491:2518   */\n      swap2\n      pop\n        /* \"#utility.yul\":2447:2449   */\n    tag_73:\n        /* \"#utility.yul\":2575:2577   */\n      0x20\n        /* \"#utility.yul\":2567:2573   */\n      dup3\n        /* \"#utility.yul\":2564:2578   */\n      lt\n        /* \"#utility.yul\":2544:2562   */\n      dup2\n        /* \"#utility.yul\":2541:2579   */\n      eq\n        /* \"#utility.yul\":2538:2540   */\n      iszero\n      tag_74\n      jumpi\n        /* \"#utility.yul\":2594:2612   */\n      tag_75\n      tag_76\n      jump\t// in\n    tag_75:\n        /* \"#utility.yul\":2538:2540   */\n    tag_74:\n        /* \"#utility.yul\":2359:2628   */\n      pop\n      swap2\n      swap1\n      pop\n      jump\t// out\n        /* \"#utility.yul\":2634:2915   */\n    tag_59:\n        /* \"#utility.yul\":2717:2744   */\n      tag_78\n        /* \"#utility.yul\":2739:2743   */\n      dup3\n        /* \"#utility.yul\":2717:2744   */\n      tag_66\n      jump\t// in\n    tag_78:\n        /* \"#utility.yul\":2709:2715   */\n      dup2\n        /* \"#utility.yul\":2705:2745   */\n      add\n        /* \"#utility.yul\":2847:2853   */\n      dup2\n        /* \"#utility.yul\":2835:2845   */\n      dup2\n        /* \"#utility.yul\":2832:2854   */\n      lt\n        /* \"#utility.yul\":2811:2829   */\n      0xffffffffffffffff\n        /* \"#utility.yul\":2799:2809   */\n      dup3\n        /* \"#utility.yul\":2796:2830   */\n      gt\n        /* \"#utility.yul\":2793:2855   */\n      or\n        /* \"#utility.yul\":2790:2792   */\n      iszero\n      tag_79\n      jumpi\n        /* \"#utility.yul\":2858:2876   */\n      tag_80\n      tag_64\n      jump\t// in\n    tag_80:\n        /* \"#utility.yul\":2790:2792   */\n    tag_79:\n        /* \"#utility.yul\":2898:2908   */\n      dup1\n        /* \"#utility.yul\":2894:2896   */\n      0x40\n        /* \"#utility.yul\":2887:2909   */\n      mstore\n        /* \"#utility.yul\":2677:2915   */\n      pop\n      pop\n      pop\n      jump\t// out\n        /* \"#utility.yul\":2921:3101   */\n    tag_76:\n        /* \"#utility.yul\":2969:3046   */\n      0x4e487b7100000000000000000000000000000000000000000000000000000000\n        /* \"#utility.yul\":2966:2967   */\n      0x00\n        /* \"#utility.yul\":2959:3047   */\n      mstore\n        /* \"#utility.yul\":3066:3070   */\n      0x22\n        /* \"#utility.yul\":3063:3064   */\n      0x04\n        /* \"#utility.yul\":3056:3071   */\n      mstore\n        /* \"#utility.yul\":3090:3094   */\n      0x24\n        /* \"#utility.yul\":3087:3088   */\n      0x00\n        /* \"#utility.yul\":3080:3095   */\n      revert\n        /* \"#utility.yul\":3107:3287   */\n    tag_64:\n        /* \"#utility.yul\":3155:3232   */\n      0x4e487b7100000000000000000000000000000000000000000000000000000000\n        /* \"#utility.yul\":3152:3153   */\n      0x00\n        /* \"#utility.yul\":3145:3233   */\n      mstore\n        /* \"#utility.yul\":3252:3256   */\n      0x41\n        /* \"#utility.yul\":3249:3250   */\n      0x04\n        /* \"#utility.yul\":3242:3257   */\n      mstore\n        /* \"#utility.yul\":3276:3280   */\n      0x24\n        /* \"#utility.yul\":3273:3274   */\n      0x00\n        /* \"#utility.yul\":3266:3281   */\n      revert\n        /* \"#utility.yul\":3293:3395   */\n    tag_66:\n        /* \"#utility.yul\":3334:3340   */\n      0x00\n        /* \"#utility.yul\":3385:3387   */\n      0x1f\n        /* \"#utility.yul\":3381:3388   */\n      not\n        /* \"#utility.yul\":3376:3378   */\n      0x1f\n        /* \"#utility.yul\":3369:3374   */\n      dup4\n        /* \"#utility.yul\":3365:3379   */\n      add\n        /* \"#utility.yul\":3361:3389   */\n      and\n        /* \"#utility.yul\":3351:3389   */\n      swap1\n      pop\n        /* \"#utility.yul\":3341:3395   */\n      swap2\n      swap1\n      pop\n      jump\t// out\n\n    auxdata: 0xa26469706673582212209a8ee035ab386c581fc53f0294cb25073a7bbba1fcd1128745dce1c5c95853b164736f6c63430008040033\n}\n",
				"bytecode": {
					"linkReferences": {},
					"object": "60806040526040518060200160405280600081525060029080519060200190610029929190610138565b5034801561003657600080fd5b50336000806101000a81548173ffffffffffffffffffffffffffffffffffffffff021916908373ffffffffffffffffffffffffffffffffffffffff16021790555030600160006101000a81548173ffffffffffffffffffffffffffffffffffffffff021916908373ffffffffffffffffffffffffffffffffffffffff1602179055507fe4f1e239ef633924ba611260f27425b0855d45f598b69b49f08f8dd9b2cc0fac60008054906101000a900473ffffffffffffffffffffffffffffffffffffffff16600160009054906101000a900473ffffffffffffffffffffffffffffffffffffffff1660405161012b9291906101ea565b60405180910390a16102a6565b82805461014490610245565b90600052602060002090601f01602090048101928261016657600085556101ad565b82601f1061017f57805160ff19168380011785556101ad565b828001600101855582156101ad579182015b828111156101ac578251825591602001919060010190610191565b5b5090506101ba91906101be565b5090565b5b808211156101d75760008160009055506001016101bf565b5090565b6101e481610213565b82525050565b60006040820190506101ff60008301856101db565b61020c60208301846101db565b9392505050565b600061021e82610225565b9050919050565b600073ffffffffffffffffffffffffffffffffffffffff82169050919050565b6000600282049050600182168061025d57607f821691505b6020821081141561027157610270610277565b5b50919050565b7f4e487b7100000000000000000000000000000000000000000000000000000000600052602260045260246000fd5b610417806102b56000396000f3fe608060405234801561001057600080fd5b50600436106100415760003560e01c8063368b8772146100465780638da5cb5b14610062578063f62639e514610080575b600080fd5b610060600480360381019061005b919061020d565b61009e565b005b61006a6100b8565b604051610077919061025d565b60405180910390f35b6100886100dc565b604051610095919061025d565b60405180910390f35b80600290805190602001906100b4929190610102565b5050565b60008054906101000a900473ffffffffffffffffffffffffffffffffffffffff1681565b600160009054906101000a900473ffffffffffffffffffffffffffffffffffffffff1681565b82805461010e9061030f565b90600052602060002090601f0160209004810192826101305760008555610177565b82601f1061014957805160ff1916838001178555610177565b82800160010185558215610177579182015b8281111561017657825182559160200191906001019061015b565b5b5090506101849190610188565b5090565b5b808211156101a1576000816000905550600101610189565b5090565b60006101b86101b38461029d565b610278565b9050828152602081018484840111156101d057600080fd5b6101db848285610300565b509392505050565b600082601f8301126101f457600080fd5b81356102048482602086016101a5565b91505092915050565b60006020828403121561021f57600080fd5b600082013567ffffffffffffffff81111561023957600080fd5b610245848285016101e3565b91505092915050565b610257816102ce565b82525050565b6000602082019050610272600083018461024e565b92915050565b6000610282610293565b905061028e8282610341565b919050565b6000604051905090565b600067ffffffffffffffff8211156102b8576102b76103a1565b5b6102c1826103d0565b9050602081019050919050565b60006102d9826102e0565b9050919050565b600073ffffffffffffffffffffffffffffffffffffffff82169050919050565b82818337600083830152505050565b6000600282049050600182168061032757607f821691505b6020821081141561033b5761033a610372565b5b50919050565b61034a826103d0565b810181811067ffffffffffffffff82111715610369576103686103a1565b5b80604052505050565b7f4e487b7100000000000000000000000000000000000000000000000000000000600052602260045260246000fd5b7f4e487b7100000000000000000000000000000000000000000000000000000000600052604160045260246000fd5b6000601f19601f830116905091905056fea26469706673582212209a8ee035ab386c581fc53f0294cb25073a7bbba1fcd1128745dce1c5c95853b164736f6c63430008040033",
					"opcodes": "PUSH1 0x80 PUSH1 0x40 MSTORE PUSH1 0x40 MLOAD DUP1 PUSH1 0x20 ADD PUSH1 0x40 MSTORE DUP1 PUSH1 0x0 DUP2 MSTORE POP PUSH1 0x2 SWAP1 DUP1 MLOAD SWAP1 PUSH1 0x20 ADD SWAP1 PUSH2 0x29 SWAP3 SWAP2 SWAP1 PUSH2 0x138 JUMP JUMPDEST POP CALLVALUE DUP1 ISZERO PUSH2 0x36 JUMPI PUSH1 0x0 DUP1 REVERT JUMPDEST POP CALLER PUSH1 0x0 DUP1 PUSH2 0x100 EXP DUP2 SLOAD DUP2 PUSH20 0xFFFFFFFFFFFFFFFFFFFFFFFFFFFFFFFFFFFFFFFF MUL NOT AND SWAP1 DUP4 PUSH20 0xFFFFFFFFFFFFFFFFFFFFFFFFFFFFFFFFFFFFFFFF AND MUL OR SWAP1 SSTORE POP ADDRESS PUSH1 0x1 PUSH1 0x0 PUSH2 0x100 EXP DUP2 SLOAD DUP2 PUSH20 0xFFFFFFFFFFFFFFFFFFFFFFFFFFFFFFFFFFFFFFFF MUL NOT AND SWAP1 DUP4 PUSH20 0xFFFFFFFFFFFFFFFFFFFFFFFFFFFFFFFFFFFFFFFF AND MUL OR SWAP1 SSTORE POP PUSH32 0xE4F1E239EF633924BA611260F27425B0855D45F598B69B49F08F8DD9B2CC0FAC PUSH1 0x0 DUP1 SLOAD SWAP1 PUSH2 0x100 EXP SWAP1 DIV PUSH20 0xFFFFFFFFFFFFFFFFFFFFFFFFFFFFFFFFFFFFFFFF AND PUSH1 0x1 PUSH1 0x0 SWAP1 SLOAD SWAP1 PUSH2 0x100 EXP SWAP1 DIV PUSH20 0xFFFFFFFFFFFFFFFFFFFFFFFFFFFFFFFFFFFFFFFF AND PUSH1 0x40 MLOAD PUSH2 0x12B SWAP3 SWAP2 SWAP1 PUSH2 0x1EA JUMP JUMPDEST PUSH1 0x40 MLOAD DUP1 SWAP2 SUB SWAP1 LOG1 PUSH2 0x2A6 JUMP JUMPDEST DUP3 DUP1 SLOAD PUSH2 0x144 SWAP1 PUSH2 0x245 JUMP JUMPDEST SWAP1 PUSH1 0x0 MSTORE PUSH1 0x20 PUSH1 0x0 KECCAK256 SWAP1 PUSH1 0x1F ADD PUSH1 0x20 SWAP1 DIV DUP2 ADD SWAP3 DUP3 PUSH2 0x166 JUMPI PUSH1 0x0 DUP6 SSTORE PUSH2 0x1AD JUMP JUMPDEST DUP3 PUSH1 0x1F LT PUSH2 0x17F JUMPI DUP1 MLOAD PUSH1 0xFF NOT AND DUP4 DUP1 ADD OR DUP6 SSTORE PUSH2 0x1AD JUMP JUMPDEST DUP3 DUP1 ADD PUSH1 0x1 ADD DUP6 SSTORE DUP3 ISZERO PUSH2 0x1AD JUMPI SWAP2 DUP3 ADD JUMPDEST DUP3 DUP2 GT ISZERO PUSH2 0x1AC JUMPI DUP3 MLOAD DUP3 SSTORE SWAP2 PUSH1 0x20 ADD SWAP2 SWAP1 PUSH1 0x1 ADD SWAP1 PUSH2 0x191 JUMP JUMPDEST JUMPDEST POP SWAP1 POP PUSH2 0x1BA SWAP2 SWAP1 PUSH2 0x1BE JUMP JUMPDEST POP SWAP1 JUMP JUMPDEST JUMPDEST DUP1 DUP3 GT ISZERO PUSH2 0x1D7 JUMPI PUSH1 0x0 DUP2 PUSH1 0x0 SWAP1 SSTORE POP PUSH1 0x1 ADD PUSH2 0x1BF JUMP JUMPDEST POP SWAP1 JUMP JUMPDEST PUSH2 0x1E4 DUP2 PUSH2 0x213 JUMP JUMPDEST DUP3 MSTORE POP POP JUMP JUMPDEST PUSH1 0x0 PUSH1 0x40 DUP3 ADD SWAP1 POP PUSH2 0x1FF PUSH1 0x0 DUP4 ADD DUP6 PUSH2 0x1DB JUMP JUMPDEST PUSH2 0x20C PUSH1 0x20 DUP4 ADD DUP5 PUSH2 0x1DB JUMP JUMPDEST SWAP4 SWAP3 POP POP POP JUMP JUMPDEST PUSH1 0x0 PUSH2 0x21E DUP3 PUSH2 0x225 JUMP JUMPDEST SWAP1 POP SWAP2 SWAP1 POP JUMP JUMPDEST PUSH1 0x0 PUSH20 0xFFFFFFFFFFFFFFFFFFFFFFFFFFFFFFFFFFFFFFFF DUP3 AND SWAP1 POP SWAP2 SWAP1 POP JUMP JUMPDEST PUSH1 0x0 PUSH1 0x2 DUP3 DIV SWAP1 POP PUSH1 0x1 DUP3 AND DUP1 PUSH2 0x25D JUMPI PUSH1 0x7F DUP3 AND SWAP2 POP JUMPDEST PUSH1 0x20 DUP3 LT DUP2 EQ ISZERO PUSH2 0x271 JUMPI PUSH2 0x270 PUSH2 0x277 JUMP JUMPDEST JUMPDEST POP SWAP2 SWAP1 POP JUMP JUMPDEST PUSH32 0x4E487B7100000000000000000000000000000000000000000000000000000000 PUSH1 0x0 MSTORE PUSH1 0x22 PUSH1 0x4 MSTORE PUSH1 0x24 PUSH1 0x0 REVERT JUMPDEST PUSH2 0x417 DUP1 PUSH2 0x2B5 PUSH1 0x0 CODECOPY PUSH1 0x0 RETURN INVALID PUSH1 0x80 PUSH1 0x40 MSTORE CALLVALUE DUP1 ISZERO PUSH2 0x10 JUMPI PUSH1 0x0 DUP1 REVERT JUMPDEST POP PUSH1 0x4 CALLDATASIZE LT PUSH2 0x41 JUMPI PUSH1 0x0 CALLDATALOAD PUSH1 0xE0 SHR DUP1 PUSH4 0x368B8772 EQ PUSH2 0x46 JUMPI DUP1 PUSH4 0x8DA5CB5B EQ PUSH2 0x62 JUMPI DUP1 PUSH4 0xF62639E5 EQ PUSH2 0x80 JUMPI JUMPDEST PUSH1 0x0 DUP1 REVERT JUMPDEST PUSH2 0x60 PUSH1 0x4 DUP1 CALLDATASIZE SUB DUP2 ADD SWAP1 PUSH2 0x5B SWAP2 SWAP1 PUSH2 0x20D JUMP JUMPDEST PUSH2 0x9E JUMP JUMPDEST STOP JUMPDEST PUSH2 0x6A PUSH2 0xB8 JUMP JUMPDEST PUSH1 0x40 MLOAD PUSH2 0x77 SWAP2 SWAP1 PUSH2 0x25D JUMP JUMPDEST PUSH1 0x40 MLOAD DUP1 SWAP2 SUB SWAP1 RETURN JUMPDEST PUSH2 0x88 PUSH2 0xDC JUMP JUMPDEST PUSH1 0x40 MLOAD PUSH2 0x95 SWAP2 SWAP1 PUSH2 0x25D JUMP JUMPDEST PUSH1 0x40 MLOAD DUP1 SWAP2 SUB SWAP1 RETURN JUMPDEST DUP1 PUSH1 0x2 SWAP1 DUP1 MLOAD SWAP1 PUSH1 0x20 ADD SWAP1 PUSH2 0xB4 SWAP3 SWAP2 SWAP1 PUSH2 0x102 JUMP JUMPDEST POP POP JUMP JUMPDEST PUSH1 0x0 DUP1 SLOAD SWAP1 PUSH2 0x100 EXP SWAP1 DIV PUSH20 0xFFFFFFFFFFFFFFFFFFFFFFFFFFFFFFFFFFFFFFFF AND DUP2 JUMP JUMPDEST PUSH1 0x1 PUSH1 0x0 SWAP1 SLOAD SWAP1 PUSH2 0x100 EXP SWAP1 DIV PUSH20 0xFFFFFFFFFFFFFFFFFFFFFFFFFFFFFFFFFFFFFFFF AND DUP2 JUMP JUMPDEST DUP3 DUP1 SLOAD PUSH2 0x10E SWAP1 PUSH2 0x30F JUMP JUMPDEST SWAP1 PUSH1 0x0 MSTORE PUSH1 0x20 PUSH1 0x0 KECCAK256 SWAP1 PUSH1 0x1F ADD PUSH1 0x20 SWAP1 DIV DUP2 ADD SWAP3 DUP3 PUSH2 0x130 JUMPI PUSH1 0x0 DUP6 SSTORE PUSH2 0x177 JUMP JUMPDEST DUP3 PUSH1 0x1F LT PUSH2 0x149 JUMPI DUP1 MLOAD PUSH1 0xFF NOT AND DUP4 DUP1 ADD OR DUP6 SSTORE PUSH2 0x177 JUMP JUMPDEST DUP3 DUP1 ADD PUSH1 0x1 ADD DUP6 SSTORE DUP3 ISZERO PUSH2 0x177 JUMPI SWAP2 DUP3 ADD JUMPDEST DUP3 DUP2 GT ISZERO PUSH2 0x176 JUMPI DUP3 MLOAD DUP3 SSTORE SWAP2 PUSH1 0x20 ADD SWAP2 SWAP1 PUSH1 0x1 ADD SWAP1 PUSH2 0x15B JUMP JUMPDEST JUMPDEST POP SWAP1 POP PUSH2 0x184 SWAP2 SWAP1 PUSH2 0x188 JUMP JUMPDEST POP SWAP1 JUMP JUMPDEST JUMPDEST DUP1 DUP3 GT ISZERO PUSH2 0x1A1 JUMPI PUSH1 0x0 DUP2 PUSH1 0x0 SWAP1 SSTORE POP PUSH1 0x1 ADD PUSH2 0x189 JUMP JUMPDEST POP SWAP1 JUMP JUMPDEST PUSH1 0x0 PUSH2 0x1B8 PUSH2 0x1B3 DUP5 PUSH2 0x29D JUMP JUMPDEST PUSH2 0x278 JUMP JUMPDEST SWAP1 POP DUP3 DUP2 MSTORE PUSH1 0x20 DUP2 ADD DUP5 DUP5 DUP5 ADD GT ISZERO PUSH2 0x1D0 JUMPI PUSH1 0x0 DUP1 REVERT JUMPDEST PUSH2 0x1DB DUP5 DUP3 DUP6 PUSH2 0x300 JUMP JUMPDEST POP SWAP4 SWAP3 POP POP POP JUMP JUMPDEST PUSH1 0x0 DUP3 PUSH1 0x1F DUP4 ADD SLT PUSH2 0x1F4 JUMPI PUSH1 0x0 DUP1 REVERT JUMPDEST DUP2 CALLDATALOAD PUSH2 0x204 DUP5 DUP3 PUSH1 0x20 DUP7 ADD PUSH2 0x1A5 JUMP JUMPDEST SWAP2 POP POP SWAP3 SWAP2 POP POP JUMP JUMPDEST PUSH1 0x0 PUSH1 0x20 DUP3 DUP5 SUB SLT ISZERO PUSH2 0x21F JUMPI PUSH1 0x0 DUP1 REVERT JUMPDEST PUSH1 0x0 DUP3 ADD CALLDATALOAD PUSH8 0xFFFFFFFFFFFFFFFF DUP2 GT ISZERO PUSH2 0x239 JUMPI PUSH1 0x0 DUP1 REVERT JUMPDEST PUSH2 0x245 DUP5 DUP3 DUP6 ADD PUSH2 0x1E3 JUMP JUMPDEST SWAP2 POP POP SWAP3 SWAP2 POP POP JUMP JUMPDEST PUSH2 0x257 DUP2 PUSH2 0x2CE JUMP JUMPDEST DUP3 MSTORE POP POP JUMP JUMPDEST PUSH1 0x0 PUSH1 0x20 DUP3 ADD SWAP1 POP PUSH2 0x272 PUSH1 0x0 DUP4 ADD DUP5 PUSH2 0x24E JUMP JUMPDEST SWAP3 SWAP2 POP POP JUMP JUMPDEST PUSH1 0x0 PUSH2 0x282 PUSH2 0x293 JUMP JUMPDEST SWAP1 POP PUSH2 0x28E DUP3 DUP3 PUSH2 0x341 JUMP JUMPDEST SWAP2 SWAP1 POP JUMP JUMPDEST PUSH1 0x0 PUSH1 0x40 MLOAD SWAP1 POP SWAP1 JUMP JUMPDEST PUSH1 0x0 PUSH8 0xFFFFFFFFFFFFFFFF DUP3 GT ISZERO PUSH2 0x2B8 JUMPI PUSH2 0x2B7 PUSH2 0x3A1 JUMP JUMPDEST JUMPDEST PUSH2 0x2C1 DUP3 PUSH2 0x3D0 JUMP JUMPDEST SWAP1 POP PUSH1 0x20 DUP2 ADD SWAP1 POP SWAP2 SWAP1 POP JUMP JUMPDEST PUSH1 0x0 PUSH2 0x2D9 DUP3 PUSH2 0x2E0 JUMP JUMPDEST SWAP1 POP SWAP2 SWAP1 POP JUMP JUMPDEST PUSH1 0x0 PUSH20 0xFFFFFFFFFFFFFFFFFFFFFFFFFFFFFFFFFFFFFFFF DUP3 AND SWAP1 POP SWAP2 SWAP1 POP JUMP JUMPDEST DUP3 DUP2 DUP4 CALLDATACOPY PUSH1 0x0 DUP4 DUP4 ADD MSTORE POP POP POP JUMP JUMPDEST PUSH1 0x0 PUSH1 0x2 DUP3 DIV SWAP1 POP PUSH1 0x1 DUP3 AND DUP1 PUSH2 0x327 JUMPI PUSH1 0x7F DUP3 AND SWAP2 POP JUMPDEST PUSH1 0x20 DUP3 LT DUP2 EQ ISZERO PUSH2 0x33B JUMPI PUSH2 0x33A PUSH2 0x372 JUMP JUMPDEST JUMPDEST POP SWAP2 SWAP1 POP JUMP JUMPDEST PUSH2 0x34A DUP3 PUSH2 0x3D0 JUMP JUMPDEST DUP2 ADD DUP2 DUP2 LT PUSH8 0xFFFFFFFFFFFFFFFF DUP3 GT OR ISZERO PUSH2 0x369 JUMPI PUSH2 0x368 PUSH2 0x3A1 JUMP JUMPDEST JUMPDEST DUP1 PUSH1 0x40 MSTORE POP POP POP JUMP JUMPDEST PUSH32 0x4E487B7100000000000000000000000000000000000000000000000000000000 PUSH1 0x0 MSTORE PUSH1 0x22 PUSH1 0x4 MSTORE PUSH1 0x24 PUSH1 0x0 REVERT JUMPDEST PUSH32 0x4E487B7100000000000000000000000000000000000000000000000000000000 PUSH1 0x0 MSTORE PUSH1 0x41 PUSH1 0x4 MSTORE PUSH1 0x24 PUSH1 0x0 REVERT JUMPDEST PUSH1 0x0 PUSH1 0x1F NOT PUSH1 0x1F DUP4 ADD AND SWAP1 POP SWAP2 SWAP1 POP JUMP INVALID LOG2 PUSH5 0x6970667358 0x22 SLT KECCAK256 SWAP11 DUP15 0xE0 CALLDATALOAD 0xAB CODESIZE PUSH13 0x581FC53F0294CB25073A7BBBA1 0xFC 0xD1 SLT DUP8 GASLIMIT 0xDC 0xE1 0xC5 0xC9 PC MSTORE8 0xB1 PUSH5 0x736F6C6343 STOP ADDMOD DIV STOP CALLER "
				},
				"gasEstimates": {
					"creation": {
						"codeDepositCost": "209400",
						"executionCost": "infinite",
						"totalCost": "infinite"
					},
					"external": {
						"owner()": "1211",
						"setMessage(string)": "infinite",
						"smartContract()": "1236"
					}
				},
				"methodIdentifiers": {
					"owner()": "8da5cb5b",
					"setMessage(string)": "368b8772",
					"smartContract()": "f62639e5"
				}
			},
			"storageLayout": {
				"storage": [
					{
						"astId": 3,
						"contract": "contracts/ganache.sol:ganache",
						"label": "owner",
						"offset": 0,
						"slot": "0",
						"type": "t_address"
					},
					{
						"astId": 5,
						"contract": "contracts/ganache.sol:ganache",
						"label": "smartContract",
						"offset": 0,
						"slot": "1",
						"type": "t_address"
					},
					{
						"astId": 8,
						"contract": "contracts/ganache.sol:ganache",
						"label": "message",
						"offset": 0,
						"slot": "2",
						"type": "t_string_storage"
					}
				],
				"types": {
					"t_address": {
						"encoding": "inplace",
						"label": "address",
						"numberOfBytes": "20"
					},
					"t_string_storage": {
						"encoding": "bytes",
						"label": "string",
						"numberOfBytes": "32"
					}
				}
			},
			"userdoc": {
				"kind": "user",
				"methods": {},
				"version": 1
			}
		}
	}
}