{
	"contracts/ganache.sol": {
		"ganache": {
			"abi": [
				{
					"inputs": [],
					"stateMutability": "nonpayable",
					"type": "constructor"
				},
				{
					"anonymous": false,
					"inputs": [
						{
							"indexed": false,
							"internalType": "address",
							"name": "owner",
							"type": "address"
						},
						{
							"indexed": false,
							"internalType": "address",
							"name": "smartContract",
							"type": "address"
						}
					],
					"name": "newContract",
					"type": "event"
				},
				{
					"anonymous": false,
					"inputs": [
						{
							"indexed": false,
							"internalType": "string",
							"name": "mensaje",
							"type": "string"
						}
					],
					"name": "newMessage",
					"type": "event"
				},
				{
					"inputs": [],
					"name": "owner",
					"outputs": [
						{
							"internalType": "address",
							"name": "",
							"type": "address"
						}
					],
					"stateMutability": "view",
					"type": "function"
				},
				{
					"inputs": [
						{
							"internalType": "string",
							"name": "_message",
							"type": "string"
						}
					],
					"name": "setMessage",
					"outputs": [],
					"stateMutability": "nonpayable",
					"type": "function"
				},
				{
					"inputs": [],
					"name": "smartContract",
					"outputs": [
						{
							"internalType": "address",
							"name": "",
							"type": "address"
						}
					],
					"stateMutability": "view",
					"type": "function"
				}
			],
			"devdoc": {
				"kind": "dev",
				"methods": {},
				"version": 1
			},
			"evm": {
				"assembly": "    /* \"contracts/ganache.sol\":63:559  contract ganache {\r... */\n  mstore(0x40, 0x80)\n    /* \"contracts/ganache.sol\":151:170  string message = \"\" */\n  mload(0x40)\n  dup1\n  0x20\n  add\n  0x40\n  mstore\n  dup1\n  0x00\n  dup2\n  mstore\n  pop\n  0x02\n  swap1\n  dup1\n  mload\n  swap1\n  0x20\n  add\n  swap1\n  tag_1\n  swap3\n  swap2\n  swap1\n  tag_2\n  jump\t// in\ntag_1:\n  pop\n    /* \"contracts/ganache.sol\":282:422  constructor() {\r... */\n  callvalue\n  dup1\n  iszero\n  tag_3\n  jumpi\n  0x00\n  dup1\n  revert\ntag_3:\n  pop\n    /* \"contracts/ganache.sol\":315:325  msg.sender */\n  caller\n    /* \"contracts/ganache.sol\":307:312  owner */\n  0x00\n  dup1\n    /* \"contracts/ganache.sol\":307:325  owner = msg.sender */\n  0x0100\n  exp\n  dup2\n  sload\n  dup2\n  0xffffffffffffffffffffffffffffffffffffffff\n  mul\n  not\n  and\n  swap1\n  dup4\n  0xffffffffffffffffffffffffffffffffffffffff\n  and\n  mul\n  or\n  swap1\n  sstore\n  pop\n    /* \"contracts/ganache.sol\":360:364  this */\n  address\n    /* \"contracts/ganache.sol\":336:349  smartContract */\n  0x01\n  0x00\n    /* \"contracts/ganache.sol\":336:365  smartContract = address(this) */\n  0x0100\n  exp\n  dup2\n  sload\n  dup2\n  0xffffffffffffffffffffffffffffffffffffffff\n  mul\n  not\n  and\n  swap1\n  dup4\n  0xffffffffffffffffffffffffffffffffffffffff\n  and\n  mul\n  or\n  swap1\n  sstore\n  pop\n    /* \"contracts/ganache.sol\":381:414  newContract(owner, smartContract) */\n  0xe4f1e239ef633924ba611260f27425b0855d45f598b69b49f08f8dd9b2cc0fac\n    /* \"contracts/ganache.sol\":393:398  owner */\n  0x00\n  dup1\n  sload\n  swap1\n  0x0100\n  exp\n  swap1\n  div\n  0xffffffffffffffffffffffffffffffffffffffff\n  and\n    /* \"contracts/ganache.sol\":400:413  smartContract */\n  0x01\n  0x00\n  swap1\n  sload\n  swap1\n  0x0100\n  exp\n  swap1\n  div\n  0xffffffffffffffffffffffffffffffffffffffff\n  and\n    /* \"contracts/ganache.sol\":381:414  newContract(owner, smartContract) */\n  mload(0x40)\n  tag_6\n  swap3\n  swap2\n  swap1\n  tag_7\n  jump\t// in\ntag_6:\n  mload(0x40)\n  dup1\n  swap2\n  sub\n  swap1\n  log1\n    /* \"contracts/ganache.sol\":63:559  contract ganache {\r... */\n  jump(tag_8)\ntag_2:\n  dup3\n  dup1\n  sload\n  tag_9\n  swap1\n  tag_10\n  jump\t// in\ntag_9:\n  swap1\n  0x00\n  mstore\n  keccak256(0x00, 0x20)\n  swap1\n  0x1f\n  add\n  0x20\n  swap1\n  div\n  dup2\n  add\n  swap3\n  dup3\n  tag_12\n  jumpi\n  0x00\n  dup6\n  sstore\n  jump(tag_11)\ntag_12:\n  dup3\n  0x1f\n  lt\n  tag_13\n  jumpi\n  dup1\n  mload\n  not(0xff)\n  and\n  dup4\n  dup1\n  add\n  or\n  dup6\n  sstore\n  jump(tag_11)\ntag_13:\n  dup3\n  dup1\n  add\n  0x01\n  add\n  dup6\n  sstore\n  dup3\n  iszero\n  tag_11\n  jumpi\n  swap2\n  dup3\n  add\ntag_14:\n  dup3\n  dup2\n  gt\n  iszero\n  tag_15\n  jumpi\n  dup3\n  mload\n  dup3\n  sstore\n  swap2\n  0x20\n  add\n  swap2\n  swap1\n  0x01\n  add\n  swap1\n  jump(tag_14)\ntag_15:\ntag_11:\n  pop\n  swap1\n  pop\n  tag_16\n  swap2\n  swap1\n  tag_17\n  jump\t// in\ntag_16:\n  pop\n  swap1\n  jump\t// out\ntag_17:\ntag_18:\n  dup1\n  dup3\n  gt\n  iszero\n  tag_19\n  jumpi\n  0x00\n  dup2\n  0x00\n  swap1\n  sstore\n  pop\n  0x01\n  add\n  jump(tag_18)\ntag_19:\n  pop\n  swap1\n  jump\t// out\n    /* \"#utility.yul\":7:125   */\ntag_21:\n    /* \"#utility.yul\":94:118   */\n  tag_23\n    /* \"#utility.yul\":112:117   */\n  dup2\n    /* \"#utility.yul\":94:118   */\n  tag_24\n  jump\t// in\ntag_23:\n    /* \"#utility.yul\":89:92   */\n  dup3\n    /* \"#utility.yul\":82:119   */\n  mstore\n    /* \"#utility.yul\":72:125   */\n  pop\n  pop\n  jump\t// out\n    /* \"#utility.yul\":131:463   */\ntag_7:\n    /* \"#utility.yul\":252:256   */\n  0x00\n    /* \"#utility.yul\":290:292   */\n  0x40\n    /* \"#utility.yul\":279:288   */\n  dup3\n    /* \"#utility.yul\":275:293   */\n  add\n    /* \"#utility.yul\":267:293   */\n  swap1\n  pop\n    /* \"#utility.yul\":303:374   */\n  tag_26\n    /* \"#utility.yul\":371:372   */\n  0x00\n    /* \"#utility.yul\":360:369   */\n  dup4\n    /* \"#utility.yul\":356:373   */\n  add\n    /* \"#utility.yul\":347:353   */\n  dup6\n    /* \"#utility.yul\":303:374   */\n  tag_21\n  jump\t// in\ntag_26:\n    /* \"#utility.yul\":384:456   */\n  tag_27\n    /* \"#utility.yul\":452:454   */\n  0x20\n    /* \"#utility.yul\":441:450   */\n  dup4\n    /* \"#utility.yul\":437:455   */\n  add\n    /* \"#utility.yul\":428:434   */\n  dup5\n    /* \"#utility.yul\":384:456   */\n  tag_21\n  jump\t// in\ntag_27:\n    /* \"#utility.yul\":257:463   */\n  swap4\n  swap3\n  pop\n  pop\n  pop\n  jump\t// out\n    /* \"#utility.yul\":469:565   */\ntag_24:\n    /* \"#utility.yul\":506:513   */\n  0x00\n    /* \"#utility.yul\":535:559   */\n  tag_29\n    /* \"#utility.yul\":553:558   */\n  dup3\n    /* \"#utility.yul\":535:559   */\n  tag_30\n  jump\t// in\ntag_29:\n    /* \"#utility.yul\":524:559   */\n  swap1\n  pop\n    /* \"#utility.yul\":514:565   */\n  swap2\n  swap1\n  pop\n  jump\t// out\n    /* \"#utility.yul\":571:697   */\ntag_30:\n    /* \"#utility.yul\":608:615   */\n  0x00\n    /* \"#utility.yul\":648:690   */\n  0xffffffffffffffffffffffffffffffffffffffff\n    /* \"#utility.yul\":641:646   */\n  dup3\n    /* \"#utility.yul\":637:691   */\n  and\n    /* \"#utility.yul\":626:691   */\n  swap1\n  pop\n    /* \"#utility.yul\":616:697   */\n  swap2\n  swap1\n  pop\n  jump\t// out\n    /* \"#utility.yul\":703:1023   */\ntag_10:\n    /* \"#utility.yul\":747:753   */\n  0x00\n    /* \"#utility.yul\":784:785   */\n  0x02\n    /* \"#utility.yul\":778:782   */\n  dup3\n    /* \"#utility.yul\":774:786   */\n  div\n    /* \"#utility.yul\":764:786   */\n  swap1\n  pop\n    /* \"#utility.yul\":831:832   */\n  0x01\n    /* \"#utility.yul\":825:829   */\n  dup3\n    /* \"#utility.yul\":821:833   */\n  and\n    /* \"#utility.yul\":852:870   */\n  dup1\n    /* \"#utility.yul\":842:844   */\n  tag_33\n  jumpi\n    /* \"#utility.yul\":908:912   */\n  0x7f\n    /* \"#utility.yul\":900:906   */\n  dup3\n    /* \"#utility.yul\":896:913   */\n  and\n    /* \"#utility.yul\":886:913   */\n  swap2\n  pop\n    /* \"#utility.yul\":842:844   */\ntag_33:\n    /* \"#utility.yul\":970:972   */\n  0x20\n    /* \"#utility.yul\":962:968   */\n  dup3\n    /* \"#utility.yul\":959:973   */\n  lt\n    /* \"#utility.yul\":939:957   */\n  dup2\n    /* \"#utility.yul\":936:974   */\n  eq\n    /* \"#utility.yul\":933:935   */\n  iszero\n  tag_34\n  jumpi\n    /* \"#utility.yul\":989:1007   */\n  tag_35\n  tag_36\n  jump\t// in\ntag_35:\n    /* \"#utility.yul\":933:935   */\ntag_34:\n    /* \"#utility.yul\":754:1023   */\n  pop\n  swap2\n  swap1\n  pop\n  jump\t// out\n    /* \"#utility.yul\":1029:1209   */\ntag_36:\n    /* \"#utility.yul\":1077:1154   */\n  0x4e487b7100000000000000000000000000000000000000000000000000000000\n    /* \"#utility.yul\":1074:1075   */\n  0x00\n    /* \"#utility.yul\":1067:1155   */\n  mstore\n    /* \"#utility.yul\":1174:1178   */\n  0x22\n    /* \"#utility.yul\":1171:1172   */\n  0x04\n    /* \"#utility.yul\":1164:1179   */\n  mstore\n    /* \"#utility.yul\":1198:1202   */\n  0x24\n    /* \"#utility.yul\":1195:1196   */\n  0x00\n    /* \"#utility.yul\":1188:1203   */\n  revert\n    /* \"contracts/ganache.sol\":63:559  contract ganache {\r... */\ntag_8:\n  dataSize(sub_0)\n  dup1\n  dataOffset(sub_0)\n  0x00\n  codecopy\n  0x00\n  return\nstop\n\nsub_0: assembly {\n        /* \"contracts/ganache.sol\":63:559  contract ganache {\r... */\n      mstore(0x40, 0x80)\n      callvalue\n      dup1\n      iszero\n      tag_1\n      jumpi\n      0x00\n      dup1\n      revert\n    tag_1:\n      pop\n      jumpi(tag_2, lt(calldatasize, 0x04))\n      shr(0xe0, calldataload(0x00))\n      dup1\n      0x368b8772\n      eq\n      tag_3\n      jumpi\n      dup1\n      0x8da5cb5b\n      eq\n      tag_4\n      jumpi\n      dup1\n      0xf62639e5\n      eq\n      tag_5\n      jumpi\n    tag_2:\n      0x00\n      dup1\n      revert\n        /* \"contracts/ganache.sol\":430:554  function setMessage(string memory _message) public {\r... */\n    tag_3:\n      tag_6\n      0x04\n      dup1\n      calldatasize\n      sub\n      dup2\n      add\n      swap1\n      tag_7\n      swap2\n      swap1\n      tag_8\n      jump\t// in\n    tag_7:\n      tag_9\n      jump\t// in\n    tag_6:\n      stop\n        /* \"contracts/ganache.sol\":89:109  address public owner */\n    tag_4:\n      tag_10\n      tag_11\n      jump\t// in\n    tag_10:\n      mload(0x40)\n      tag_12\n      swap2\n      swap1\n      tag_13\n      jump\t// in\n    tag_12:\n      mload(0x40)\n      dup1\n      swap2\n      sub\n      swap1\n      return\n        /* \"contracts/ganache.sol\":116:144  address public smartContract */\n    tag_5:\n      tag_14\n      tag_15\n      jump\t// in\n    tag_14:\n      mload(0x40)\n      tag_16\n      swap2\n      swap1\n      tag_13\n      jump\t// in\n    tag_16:\n      mload(0x40)\n      dup1\n      swap2\n      sub\n      swap1\n      return\n        /* \"contracts/ganache.sol\":430:554  function setMessage(string memory _message) public {\r... */\n    tag_9:\n        /* \"contracts/ganache.sol\":502:510  _message */\n      dup1\n        /* \"contracts/ganache.sol\":492:499  message */\n      0x02\n        /* \"contracts/ganache.sol\":492:510  message = _message */\n      swap1\n      dup1\n      mload\n      swap1\n      0x20\n      add\n      swap1\n      tag_18\n      swap3\n      swap2\n      swap1\n      tag_19\n      jump\t// in\n    tag_18:\n      pop\n        /* \"contracts/ganache.sol\":526:546  newMessage(_message) */\n      0xb6b9255ef41b64a179028fa358d210c528409790c6daf4907f41fcba571e1112\n        /* \"contracts/ganache.sol\":537:545  _message */\n      dup2\n        /* \"contracts/ganache.sol\":526:546  newMessage(_message) */\n      mload(0x40)\n      tag_20\n      swap2\n      swap1\n      tag_21\n      jump\t// in\n    tag_20:\n      mload(0x40)\n      dup1\n      swap2\n      sub\n      swap1\n      log1\n        /* \"contracts/ganache.sol\":430:554  function setMessage(string memory _message) public {\r... */\n      pop\n      jump\t// out\n        /* \"contracts/ganache.sol\":89:109  address public owner */\n    tag_11:\n      0x00\n      dup1\n      sload\n      swap1\n      0x0100\n      exp\n      swap1\n      div\n      0xffffffffffffffffffffffffffffffffffffffff\n      and\n      dup2\n      jump\t// out\n        /* \"contracts/ganache.sol\":116:144  address public smartContract */\n    tag_15:\n      0x01\n      0x00\n      swap1\n      sload\n      swap1\n      0x0100\n      exp\n      swap1\n      div\n      0xffffffffffffffffffffffffffffffffffffffff\n      and\n      dup2\n      jump\t// out\n    tag_19:\n      dup3\n      dup1\n      sload\n      tag_22\n      swap1\n      tag_23\n      jump\t// in\n    tag_22:\n      swap1\n      0x00\n      mstore\n      keccak256(0x00, 0x20)\n      swap1\n      0x1f\n      add\n      0x20\n      swap1\n      div\n      dup2\n      add\n      swap3\n      dup3\n      tag_25\n      jumpi\n      0x00\n      dup6\n      sstore\n      jump(tag_24)\n    tag_25:\n      dup3\n      0x1f\n      lt\n      tag_26\n      jumpi\n      dup1\n      mload\n      not(0xff)\n      and\n      dup4\n      dup1\n      add\n      or\n      dup6\n      sstore\n      jump(tag_24)\n    tag_26:\n      dup3\n      dup1\n      add\n      0x01\n      add\n      dup6\n      sstore\n      dup3\n      iszero\n      tag_24\n      jumpi\n      swap2\n      dup3\n      add\n    tag_27:\n      dup3\n      dup2\n      gt\n      iszero\n      tag_28\n      jumpi\n      dup3\n      mload\n      dup3\n      sstore\n      swap2\n      0x20\n      add\n      swap2\n      swap1\n      0x01\n      add\n      swap1\n      jump(tag_27)\n    tag_28:\n    tag_24:\n      pop\n      swap1\n      pop\n      tag_29\n      swap2\n      swap1\n      tag_30\n      jump\t// in\n    tag_29:\n      pop\n      swap1\n      jump\t// out\n    tag_30:\n    tag_31:\n      dup1\n      dup3\n      gt\n      iszero\n      tag_32\n      jumpi\n      0x00\n      dup2\n      0x00\n      swap1\n      sstore\n      pop\n      0x01\n      add\n      jump(tag_31)\n    tag_32:\n      pop\n      swap1\n      jump\t// out\n        /* \"#utility.yul\":7:352   */\n    tag_34:\n        /* \"#utility.yul\":85:90   */\n      0x00\n        /* \"#utility.yul\":110:176   */\n      tag_36\n        /* \"#utility.yul\":126:175   */\n      tag_37\n        /* \"#utility.yul\":168:174   */\n      dup5\n        /* \"#utility.yul\":126:175   */\n      tag_38\n      jump\t// in\n    tag_37:\n        /* \"#utility.yul\":110:176   */\n      tag_39\n      jump\t// in\n    tag_36:\n        /* \"#utility.yul\":101:176   */\n      swap1\n      pop\n        /* \"#utility.yul\":199:205   */\n      dup3\n        /* \"#utility.yul\":192:197   */\n      dup2\n        /* \"#utility.yul\":185:206   */\n      mstore\n        /* \"#utility.yul\":237:241   */\n      0x20\n        /* \"#utility.yul\":230:235   */\n      dup2\n        /* \"#utility.yul\":226:242   */\n      add\n        /* \"#utility.yul\":275:278   */\n      dup5\n        /* \"#utility.yul\":266:272   */\n      dup5\n        /* \"#utility.yul\":261:264   */\n      dup5\n        /* \"#utility.yul\":257:273   */\n      add\n        /* \"#utility.yul\":254:279   */\n      gt\n        /* \"#utility.yul\":251:253   */\n      iszero\n      tag_40\n      jumpi\n        /* \"#utility.yul\":292:293   */\n      0x00\n        /* \"#utility.yul\":289:290   */\n      dup1\n        /* \"#utility.yul\":282:294   */\n      revert\n        /* \"#utility.yul\":251:253   */\n    tag_40:\n        /* \"#utility.yul\":305:346   */\n      tag_41\n        /* \"#utility.yul\":339:345   */\n      dup5\n        /* \"#utility.yul\":334:337   */\n      dup3\n        /* \"#utility.yul\":329:332   */\n      dup6\n        /* \"#utility.yul\":305:346   */\n      tag_42\n      jump\t// in\n    tag_41:\n        /* \"#utility.yul\":91:352   */\n      pop\n      swap4\n      swap3\n      pop\n      pop\n      pop\n      jump\t// out\n        /* \"#utility.yul\":372:645   */\n    tag_43:\n        /* \"#utility.yul\":428:433   */\n      0x00\n        /* \"#utility.yul\":477:480   */\n      dup3\n        /* \"#utility.yul\":470:474   */\n      0x1f\n        /* \"#utility.yul\":462:468   */\n      dup4\n        /* \"#utility.yul\":458:475   */\n      add\n        /* \"#utility.yul\":454:481   */\n      slt\n        /* \"#utility.yul\":444:446   */\n      tag_45\n      jumpi\n        /* \"#utility.yul\":495:496   */\n      0x00\n        /* \"#utility.yul\":492:493   */\n      dup1\n        /* \"#utility.yul\":485:497   */\n      revert\n        /* \"#utility.yul\":444:446   */\n    tag_45:\n        /* \"#utility.yul\":535:541   */\n      dup2\n        /* \"#utility.yul\":522:542   */\n      calldataload\n        /* \"#utility.yul\":560:639   */\n      tag_46\n        /* \"#utility.yul\":635:638   */\n      dup5\n        /* \"#utility.yul\":627:633   */\n      dup3\n        /* \"#utility.yul\":620:624   */\n      0x20\n        /* \"#utility.yul\":612:618   */\n      dup7\n        /* \"#utility.yul\":608:625   */\n      add\n        /* \"#utility.yul\":560:639   */\n      tag_34\n      jump\t// in\n    tag_46:\n        /* \"#utility.yul\":551:639   */\n      swap2\n      pop\n        /* \"#utility.yul\":434:645   */\n      pop\n      swap3\n      swap2\n      pop\n      pop\n      jump\t// out\n        /* \"#utility.yul\":651:1026   */\n    tag_8:\n        /* \"#utility.yul\":720:726   */\n      0x00\n        /* \"#utility.yul\":769:771   */\n      0x20\n        /* \"#utility.yul\":757:766   */\n      dup3\n        /* \"#utility.yul\":748:755   */\n      dup5\n        /* \"#utility.yul\":744:767   */\n      sub\n        /* \"#utility.yul\":740:772   */\n      slt\n        /* \"#utility.yul\":737:739   */\n      iszero\n      tag_48\n      jumpi\n        /* \"#utility.yul\":785:786   */\n      0x00\n        /* \"#utility.yul\":782:783   */\n      dup1\n        /* \"#utility.yul\":775:787   */\n      revert\n        /* \"#utility.yul\":737:739   */\n    tag_48:\n        /* \"#utility.yul\":856:857   */\n      0x00\n        /* \"#utility.yul\":845:854   */\n      dup3\n        /* \"#utility.yul\":841:858   */\n      add\n        /* \"#utility.yul\":828:859   */\n      calldataload\n        /* \"#utility.yul\":886:904   */\n      0xffffffffffffffff\n        /* \"#utility.yul\":878:884   */\n      dup2\n        /* \"#utility.yul\":875:905   */\n      gt\n        /* \"#utility.yul\":872:874   */\n      iszero\n      tag_49\n      jumpi\n        /* \"#utility.yul\":918:919   */\n      0x00\n        /* \"#utility.yul\":915:916   */\n      dup1\n        /* \"#utility.yul\":908:920   */\n      revert\n        /* \"#utility.yul\":872:874   */\n    tag_49:\n        /* \"#utility.yul\":946:1009   */\n      tag_50\n        /* \"#utility.yul\":1001:1008   */\n      dup5\n        /* \"#utility.yul\":992:998   */\n      dup3\n        /* \"#utility.yul\":981:990   */\n      dup6\n        /* \"#utility.yul\":977:999   */\n      add\n        /* \"#utility.yul\":946:1009   */\n      tag_43\n      jump\t// in\n    tag_50:\n        /* \"#utility.yul\":936:1009   */\n      swap2\n      pop\n        /* \"#utility.yul\":799:1019   */\n      pop\n        /* \"#utility.yul\":727:1026   */\n      swap3\n      swap2\n      pop\n      pop\n      jump\t// out\n        /* \"#utility.yul\":1032:1150   */\n    tag_51:\n        /* \"#utility.yul\":1119:1143   */\n      tag_53\n        /* \"#utility.yul\":1137:1142   */\n      dup2\n        /* \"#utility.yul\":1119:1143   */\n      tag_54\n      jump\t// in\n    tag_53:\n        /* \"#utility.yul\":1114:1117   */\n      dup3\n        /* \"#utility.yul\":1107:1144   */\n      mstore\n        /* \"#utility.yul\":1097:1150   */\n      pop\n      pop\n      jump\t// out\n        /* \"#utility.yul\":1156:1520   */\n    tag_55:\n        /* \"#utility.yul\":1244:1247   */\n      0x00\n        /* \"#utility.yul\":1272:1311   */\n      tag_57\n        /* \"#utility.yul\":1305:1310   */\n      dup3\n        /* \"#utility.yul\":1272:1311   */\n      tag_58\n      jump\t// in\n    tag_57:\n        /* \"#utility.yul\":1327:1398   */\n      tag_59\n        /* \"#utility.yul\":1391:1397   */\n      dup2\n        /* \"#utility.yul\":1386:1389   */\n      dup6\n        /* \"#utility.yul\":1327:1398   */\n      tag_60\n      jump\t// in\n    tag_59:\n        /* \"#utility.yul\":1320:1398   */\n      swap4\n      pop\n        /* \"#utility.yul\":1407:1459   */\n      tag_61\n        /* \"#utility.yul\":1452:1458   */\n      dup2\n        /* \"#utility.yul\":1447:1450   */\n      dup6\n        /* \"#utility.yul\":1440:1444   */\n      0x20\n        /* \"#utility.yul\":1433:1438   */\n      dup7\n        /* \"#utility.yul\":1429:1445   */\n      add\n        /* \"#utility.yul\":1407:1459   */\n      tag_62\n      jump\t// in\n    tag_61:\n        /* \"#utility.yul\":1484:1513   */\n      tag_63\n        /* \"#utility.yul\":1506:1512   */\n      dup2\n        /* \"#utility.yul\":1484:1513   */\n      tag_64\n      jump\t// in\n    tag_63:\n        /* \"#utility.yul\":1479:1482   */\n      dup5\n        /* \"#utility.yul\":1475:1514   */\n      add\n        /* \"#utility.yul\":1468:1514   */\n      swap2\n      pop\n        /* \"#utility.yul\":1248:1520   */\n      pop\n      swap3\n      swap2\n      pop\n      pop\n      jump\t// out\n        /* \"#utility.yul\":1526:1748   */\n    tag_13:\n        /* \"#utility.yul\":1619:1623   */\n      0x00\n        /* \"#utility.yul\":1657:1659   */\n      0x20\n        /* \"#utility.yul\":1646:1655   */\n      dup3\n        /* \"#utility.yul\":1642:1660   */\n      add\n        /* \"#utility.yul\":1634:1660   */\n      swap1\n      pop\n        /* \"#utility.yul\":1670:1741   */\n      tag_66\n        /* \"#utility.yul\":1738:1739   */\n      0x00\n        /* \"#utility.yul\":1727:1736   */\n      dup4\n        /* \"#utility.yul\":1723:1740   */\n      add\n        /* \"#utility.yul\":1714:1720   */\n      dup5\n        /* \"#utility.yul\":1670:1741   */\n      tag_51\n      jump\t// in\n    tag_66:\n        /* \"#utility.yul\":1624:1748   */\n      swap3\n      swap2\n      pop\n      pop\n      jump\t// out\n        /* \"#utility.yul\":1754:2067   */\n    tag_21:\n        /* \"#utility.yul\":1867:1871   */\n      0x00\n        /* \"#utility.yul\":1905:1907   */\n      0x20\n        /* \"#utility.yul\":1894:1903   */\n      dup3\n        /* \"#utility.yul\":1890:1908   */\n      add\n        /* \"#utility.yul\":1882:1908   */\n      swap1\n      pop\n        /* \"#utility.yul\":1954:1963   */\n      dup2\n        /* \"#utility.yul\":1948:1952   */\n      dup2\n        /* \"#utility.yul\":1944:1964   */\n      sub\n        /* \"#utility.yul\":1940:1941   */\n      0x00\n        /* \"#utility.yul\":1929:1938   */\n      dup4\n        /* \"#utility.yul\":1925:1942   */\n      add\n        /* \"#utility.yul\":1918:1965   */\n      mstore\n        /* \"#utility.yul\":1982:2060   */\n      tag_68\n        /* \"#utility.yul\":2055:2059   */\n      dup2\n        /* \"#utility.yul\":2046:2052   */\n      dup5\n        /* \"#utility.yul\":1982:2060   */\n      tag_55\n      jump\t// in\n    tag_68:\n        /* \"#utility.yul\":1974:2060   */\n      swap1\n      pop\n        /* \"#utility.yul\":1872:2067   */\n      swap3\n      swap2\n      pop\n      pop\n      jump\t// out\n        /* \"#utility.yul\":2073:2202   */\n    tag_39:\n        /* \"#utility.yul\":2107:2113   */\n      0x00\n        /* \"#utility.yul\":2134:2154   */\n      tag_70\n      tag_71\n      jump\t// in\n    tag_70:\n        /* \"#utility.yul\":2124:2154   */\n      swap1\n      pop\n        /* \"#utility.yul\":2163:2196   */\n      tag_72\n        /* \"#utility.yul\":2191:2195   */\n      dup3\n        /* \"#utility.yul\":2183:2189   */\n      dup3\n        /* \"#utility.yul\":2163:2196   */\n      tag_73\n      jump\t// in\n    tag_72:\n        /* \"#utility.yul\":2114:2202   */\n      swap2\n      swap1\n      pop\n      jump\t// out\n        /* \"#utility.yul\":2208:2283   */\n    tag_71:\n        /* \"#utility.yul\":2241:2247   */\n      0x00\n        /* \"#utility.yul\":2274:2276   */\n      0x40\n        /* \"#utility.yul\":2268:2277   */\n      mload\n        /* \"#utility.yul\":2258:2277   */\n      swap1\n      pop\n        /* \"#utility.yul\":2248:2283   */\n      swap1\n      jump\t// out\n        /* \"#utility.yul\":2289:2597   */\n    tag_38:\n        /* \"#utility.yul\":2351:2355   */\n      0x00\n        /* \"#utility.yul\":2441:2459   */\n      0xffffffffffffffff\n        /* \"#utility.yul\":2433:2439   */\n      dup3\n        /* \"#utility.yul\":2430:2460   */\n      gt\n        /* \"#utility.yul\":2427:2429   */\n      iszero\n      tag_76\n      jumpi\n        /* \"#utility.yul\":2463:2481   */\n      tag_77\n      tag_78\n      jump\t// in\n    tag_77:\n        /* \"#utility.yul\":2427:2429   */\n    tag_76:\n        /* \"#utility.yul\":2501:2530   */\n      tag_79\n        /* \"#utility.yul\":2523:2529   */\n      dup3\n        /* \"#utility.yul\":2501:2530   */\n      tag_64\n      jump\t// in\n    tag_79:\n        /* \"#utility.yul\":2493:2530   */\n      swap1\n      pop\n        /* \"#utility.yul\":2585:2589   */\n      0x20\n        /* \"#utility.yul\":2579:2583   */\n      dup2\n        /* \"#utility.yul\":2575:2590   */\n      add\n        /* \"#utility.yul\":2567:2590   */\n      swap1\n      pop\n        /* \"#utility.yul\":2356:2597   */\n      swap2\n      swap1\n      pop\n      jump\t// out\n        /* \"#utility.yul\":2603:2702   */\n    tag_58:\n        /* \"#utility.yul\":2655:2661   */\n      0x00\n        /* \"#utility.yul\":2689:2694   */\n      dup2\n        /* \"#utility.yul\":2683:2695   */\n      mload\n        /* \"#utility.yul\":2673:2695   */\n      swap1\n      pop\n        /* \"#utility.yul\":2662:2702   */\n      swap2\n      swap1\n      pop\n      jump\t// out\n        /* \"#utility.yul\":2708:2877   */\n    tag_60:\n        /* \"#utility.yul\":2792:2803   */\n      0x00\n        /* \"#utility.yul\":2826:2832   */\n      dup3\n        /* \"#utility.yul\":2821:2824   */\n      dup3\n        /* \"#utility.yul\":2814:2833   */\n      mstore\n        /* \"#utility.yul\":2866:2870   */\n      0x20\n        /* \"#utility.yul\":2861:2864   */\n      dup3\n        /* \"#utility.yul\":2857:2871   */\n      add\n        /* \"#utility.yul\":2842:2871   */\n      swap1\n      pop\n        /* \"#utility.yul\":2804:2877   */\n      swap3\n      swap2\n      pop\n      pop\n      jump\t// out\n        /* \"#utility.yul\":2883:2979   */\n    tag_54:\n        /* \"#utility.yul\":2920:2927   */\n      0x00\n        /* \"#utility.yul\":2949:2973   */\n      tag_83\n        /* \"#utility.yul\":2967:2972   */\n      dup3\n        /* \"#utility.yul\":2949:2973   */\n      tag_84\n      jump\t// in\n    tag_83:\n        /* \"#utility.yul\":2938:2973   */\n      swap1\n      pop\n        /* \"#utility.yul\":2928:2979   */\n      swap2\n      swap1\n      pop\n      jump\t// out\n        /* \"#utility.yul\":2985:3111   */\n    tag_84:\n        /* \"#utility.yul\":3022:3029   */\n      0x00\n        /* \"#utility.yul\":3062:3104   */\n      0xffffffffffffffffffffffffffffffffffffffff\n        /* \"#utility.yul\":3055:3060   */\n      dup3\n        /* \"#utility.yul\":3051:3105   */\n      and\n        /* \"#utility.yul\":3040:3105   */\n      swap1\n      pop\n        /* \"#utility.yul\":3030:3111   */\n      swap2\n      swap1\n      pop\n      jump\t// out\n        /* \"#utility.yul\":3117:3271   */\n    tag_42:\n        /* \"#utility.yul\":3201:3207   */\n      dup3\n        /* \"#utility.yul\":3196:3199   */\n      dup2\n        /* \"#utility.yul\":3191:3194   */\n      dup4\n        /* \"#utility.yul\":3178:3208   */\n      calldatacopy\n        /* \"#utility.yul\":3263:3264   */\n      0x00\n        /* \"#utility.yul\":3254:3260   */\n      dup4\n        /* \"#utility.yul\":3249:3252   */\n      dup4\n        /* \"#utility.yul\":3245:3261   */\n      add\n        /* \"#utility.yul\":3238:3265   */\n      mstore\n        /* \"#utility.yul\":3168:3271   */\n      pop\n      pop\n      pop\n      jump\t// out\n        /* \"#utility.yul\":3277:3584   */\n    tag_62:\n        /* \"#utility.yul\":3345:3346   */\n      0x00\n        /* \"#utility.yul\":3355:3468   */\n    tag_88:\n        /* \"#utility.yul\":3369:3375   */\n      dup4\n        /* \"#utility.yul\":3366:3367   */\n      dup2\n        /* \"#utility.yul\":3363:3376   */\n      lt\n        /* \"#utility.yul\":3355:3468   */\n      iszero\n      tag_90\n      jumpi\n        /* \"#utility.yul\":3454:3455   */\n      dup1\n        /* \"#utility.yul\":3449:3452   */\n      dup3\n        /* \"#utility.yul\":3445:3456   */\n      add\n        /* \"#utility.yul\":3439:3457   */\n      mload\n        /* \"#utility.yul\":3435:3436   */\n      dup2\n        /* \"#utility.yul\":3430:3433   */\n      dup5\n        /* \"#utility.yul\":3426:3437   */\n      add\n        /* \"#utility.yul\":3419:3458   */\n      mstore\n        /* \"#utility.yul\":3391:3393   */\n      0x20\n        /* \"#utility.yul\":3388:3389   */\n      dup2\n        /* \"#utility.yul\":3384:3394   */\n      add\n        /* \"#utility.yul\":3379:3394   */\n      swap1\n      pop\n        /* \"#utility.yul\":3355:3468   */\n      jump(tag_88)\n    tag_90:\n        /* \"#utility.yul\":3486:3492   */\n      dup4\n        /* \"#utility.yul\":3483:3484   */\n      dup2\n        /* \"#utility.yul\":3480:3493   */\n      gt\n        /* \"#utility.yul\":3477:3479   */\n      iszero\n      tag_91\n      jumpi\n        /* \"#utility.yul\":3566:3567   */\n      0x00\n        /* \"#utility.yul\":3557:3563   */\n      dup5\n        /* \"#utility.yul\":3552:3555   */\n      dup5\n        /* \"#utility.yul\":3548:3564   */\n      add\n        /* \"#utility.yul\":3541:3568   */\n      mstore\n        /* \"#utility.yul\":3477:3479   */\n    tag_91:\n        /* \"#utility.yul\":3326:3584   */\n      pop\n      pop\n      pop\n      pop\n      jump\t// out\n        /* \"#utility.yul\":3590:3910   */\n    tag_23:\n        /* \"#utility.yul\":3634:3640   */\n      0x00\n        /* \"#utility.yul\":3671:3672   */\n      0x02\n        /* \"#utility.yul\":3665:3669   */\n      dup3\n        /* \"#utility.yul\":3661:3673   */\n      div\n        /* \"#utility.yul\":3651:3673   */\n      swap1\n      pop\n        /* \"#utility.yul\":3718:3719   */\n      0x01\n        /* \"#utility.yul\":3712:3716   */\n      dup3\n        /* \"#utility.yul\":3708:3720   */\n      and\n        /* \"#utility.yul\":3739:3757   */\n      dup1\n        /* \"#utility.yul\":3729:3731   */\n      tag_93\n      jumpi\n        /* \"#utility.yul\":3795:3799   */\n      0x7f\n        /* \"#utility.yul\":3787:3793   */\n      dup3\n        /* \"#utility.yul\":3783:3800   */\n      and\n        /* \"#utility.yul\":3773:3800   */\n      swap2\n      pop\n        /* \"#utility.yul\":3729:3731   */\n    tag_93:\n        /* \"#utility.yul\":3857:3859   */\n      0x20\n        /* \"#utility.yul\":3849:3855   */\n      dup3\n        /* \"#utility.yul\":3846:3860   */\n      lt\n        /* \"#utility.yul\":3826:3844   */\n      dup2\n        /* \"#utility.yul\":3823:3861   */\n      eq\n        /* \"#utility.yul\":3820:3822   */\n      iszero\n      tag_94\n      jumpi\n        /* \"#utility.yul\":3876:3894   */\n      tag_95\n      tag_96\n      jump\t// in\n    tag_95:\n        /* \"#utility.yul\":3820:3822   */\n    tag_94:\n        /* \"#utility.yul\":3641:3910   */\n      pop\n      swap2\n      swap1\n      pop\n      jump\t// out\n        /* \"#utility.yul\":3916:4197   */\n    tag_73:\n        /* \"#utility.yul\":3999:4026   */\n      tag_98\n        /* \"#utility.yul\":4021:4025   */\n      dup3\n        /* \"#utility.yul\":3999:4026   */\n      tag_64\n      jump\t// in\n    tag_98:\n        /* \"#utility.yul\":3991:3997   */\n      dup2\n        /* \"#utility.yul\":3987:4027   */\n      add\n        /* \"#utility.yul\":4129:4135   */\n      dup2\n        /* \"#utility.yul\":4117:4127   */\n      dup2\n        /* \"#utility.yul\":4114:4136   */\n      lt\n        /* \"#utility.yul\":4093:4111   */\n      0xffffffffffffffff\n        /* \"#utility.yul\":4081:4091   */\n      dup3\n        /* \"#utility.yul\":4078:4112   */\n      gt\n        /* \"#utility.yul\":4075:4137   */\n      or\n        /* \"#utility.yul\":4072:4074   */\n      iszero\n      tag_99\n      jumpi\n        /* \"#utility.yul\":4140:4158   */\n      tag_100\n      tag_78\n      jump\t// in\n    tag_100:\n        /* \"#utility.yul\":4072:4074   */\n    tag_99:\n        /* \"#utility.yul\":4180:4190   */\n      dup1\n        /* \"#utility.yul\":4176:4178   */\n      0x40\n        /* \"#utility.yul\":4169:4191   */\n      mstore\n        /* \"#utility.yul\":3959:4197   */\n      pop\n      pop\n      pop\n      jump\t// out\n        /* \"#utility.yul\":4203:4383   */\n    tag_96:\n        /* \"#utility.yul\":4251:4328   */\n      0x4e487b7100000000000000000000000000000000000000000000000000000000\n        /* \"#utility.yul\":4248:4249   */\n      0x00\n        /* \"#utility.yul\":4241:4329   */\n      mstore\n        /* \"#utility.yul\":4348:4352   */\n      0x22\n        /* \"#utility.yul\":4345:4346   */\n      0x04\n        /* \"#utility.yul\":4338:4353   */\n      mstore\n        /* \"#utility.yul\":4372:4376   */\n      0x24\n        /* \"#utility.yul\":4369:4370   */\n      0x00\n        /* \"#utility.yul\":4362:4377   */\n      revert\n        /* \"#utility.yul\":4389:4569   */\n    tag_78:\n        /* \"#utility.yul\":4437:4514   */\n      0x4e487b7100000000000000000000000000000000000000000000000000000000\n        /* \"#utility.yul\":4434:4435   */\n      0x00\n        /* \"#utility.yul\":4427:4515   */\n      mstore\n        /* \"#utility.yul\":4534:4538   */\n      0x41\n        /* \"#utility.yul\":4531:4532   */\n      0x04\n        /* \"#utility.yul\":4524:4539   */\n      mstore\n        /* \"#utility.yul\":4558:4562   */\n      0x24\n        /* \"#utility.yul\":4555:4556   */\n      0x00\n        /* \"#utility.yul\":4548:4563   */\n      revert\n        /* \"#utility.yul\":4575:4677   */\n    tag_64:\n        /* \"#utility.yul\":4616:4622   */\n      0x00\n        /* \"#utility.yul\":4667:4669   */\n      0x1f\n        /* \"#utility.yul\":4663:4670   */\n      not\n        /* \"#utility.yul\":4658:4660   */\n      0x1f\n        /* \"#utility.yul\":4651:4656   */\n      dup4\n        /* \"#utility.yul\":4647:4661   */\n      add\n        /* \"#utility.yul\":4643:4671   */\n      and\n        /* \"#utility.yul\":4633:4671   */\n      swap1\n      pop\n        /* \"#utility.yul\":4623:4677   */\n      swap2\n      swap1\n      pop\n      jump\t// out\n\n    auxdata: 0xa264697066735822122016b030213a8935468b68f918596c490aee05b27ff1d748c082e2f328a559dfc464736f6c63430008040033\n}\n",
				"bytecode": {
					"linkReferences": {},
					"object": "60806040526040518060200160405280600081525060029080519060200190610029929190610138565b5034801561003657600080fd5b50336000806101000a81548173ffffffffffffffffffffffffffffffffffffffff021916908373ffffffffffffffffffffffffffffffffffffffff16021790555030600160006101000a81548173ffffffffffffffffffffffffffffffffffffffff021916908373ffffffffffffffffffffffffffffffffffffffff1602179055507fe4f1e239ef633924ba611260f27425b0855d45f598b69b49f08f8dd9b2cc0fac60008054906101000a900473ffffffffffffffffffffffffffffffffffffffff16600160009054906101000a900473ffffffffffffffffffffffffffffffffffffffff1660405161012b9291906101ea565b60405180910390a16102a6565b82805461014490610245565b90600052602060002090601f01602090048101928261016657600085556101ad565b82601f1061017f57805160ff19168380011785556101ad565b828001600101855582156101ad579182015b828111156101ac578251825591602001919060010190610191565b5b5090506101ba91906101be565b5090565b5b808211156101d75760008160009055506001016101bf565b5090565b6101e481610213565b82525050565b60006040820190506101ff60008301856101db565b61020c60208301846101db565b9392505050565b600061021e82610225565b9050919050565b600073ffffffffffffffffffffffffffffffffffffffff82169050919050565b6000600282049050600182168061025d57607f821691505b6020821081141561027157610270610277565b5b50919050565b7f4e487b7100000000000000000000000000000000000000000000000000000000600052602260045260246000fd5b6104f8806102b56000396000f3fe608060405234801561001057600080fd5b50600436106100415760003560e01c8063368b8772146100465780638da5cb5b14610062578063f62639e514610080575b600080fd5b610060600480360381019061005b9190610244565b61009e565b005b61006a6100ef565b60405161007791906102cd565b60405180910390f35b610088610113565b60405161009591906102cd565b60405180910390f35b80600290805190602001906100b4929190610139565b507fb6b9255ef41b64a179028fa358d210c528409790c6daf4907f41fcba571e1112816040516100e491906102e8565b60405180910390a150565b60008054906101000a900473ffffffffffffffffffffffffffffffffffffffff1681565b600160009054906101000a900473ffffffffffffffffffffffffffffffffffffffff1681565b828054610145906103f0565b90600052602060002090601f01602090048101928261016757600085556101ae565b82601f1061018057805160ff19168380011785556101ae565b828001600101855582156101ae579182015b828111156101ad578251825591602001919060010190610192565b5b5090506101bb91906101bf565b5090565b5b808211156101d85760008160009055506001016101c0565b5090565b60006101ef6101ea8461032f565b61030a565b90508281526020810184848401111561020757600080fd5b6102128482856103ae565b509392505050565b600082601f83011261022b57600080fd5b813561023b8482602086016101dc565b91505092915050565b60006020828403121561025657600080fd5b600082013567ffffffffffffffff81111561027057600080fd5b61027c8482850161021a565b91505092915050565b61028e8161037c565b82525050565b600061029f82610360565b6102a9818561036b565b93506102b98185602086016103bd565b6102c2816104b1565b840191505092915050565b60006020820190506102e26000830184610285565b92915050565b600060208201905081810360008301526103028184610294565b905092915050565b6000610314610325565b90506103208282610422565b919050565b6000604051905090565b600067ffffffffffffffff82111561034a57610349610482565b5b610353826104b1565b9050602081019050919050565b600081519050919050565b600082825260208201905092915050565b60006103878261038e565b9050919050565b600073ffffffffffffffffffffffffffffffffffffffff82169050919050565b82818337600083830152505050565b60005b838110156103db5780820151818401526020810190506103c0565b838111156103ea576000848401525b50505050565b6000600282049050600182168061040857607f821691505b6020821081141561041c5761041b610453565b5b50919050565b61042b826104b1565b810181811067ffffffffffffffff8211171561044a57610449610482565b5b80604052505050565b7f4e487b7100000000000000000000000000000000000000000000000000000000600052602260045260246000fd5b7f4e487b7100000000000000000000000000000000000000000000000000000000600052604160045260246000fd5b6000601f19601f830116905091905056fea264697066735822122016b030213a8935468b68f918596c490aee05b27ff1d748c082e2f328a559dfc464736f6c63430008040033",
					"opcodes": "PUSH1 0x80 PUSH1 0x40 MSTORE PUSH1 0x40 MLOAD DUP1 PUSH1 0x20 ADD PUSH1 0x40 MSTORE DUP1 PUSH1 0x0 DUP2 MSTORE POP PUSH1 0x2 SWAP1 DUP1 MLOAD SWAP1 PUSH1 0x20 ADD SWAP1 PUSH2 0x29 SWAP3 SWAP2 SWAP1 PUSH2 0x138 JUMP JUMPDEST POP CALLVALUE DUP1 ISZERO PUSH2 0x36 JUMPI PUSH1 0x0 DUP1 REVERT JUMPDEST POP CALLER PUSH1 0x0 DUP1 PUSH2 0x100 EXP DUP2 SLOAD DUP2 PUSH20 0xFFFFFFFFFFFFFFFFFFFFFFFFFFFFFFFFFFFFFFFF MUL NOT AND SWAP1 DUP4 PUSH20 0xFFFFFFFFFFFFFFFFFFFFFFFFFFFFFFFFFFFFFFFF AND MUL OR SWAP1 SSTORE POP ADDRESS PUSH1 0x1 PUSH1 0x0 PUSH2 0x100 EXP DUP2 SLOAD DUP2 PUSH20 0xFFFFFFFFFFFFFFFFFFFFFFFFFFFFFFFFFFFFFFFF MUL NOT AND SWAP1 DUP4 PUSH20 0xFFFFFFFFFFFFFFFFFFFFFFFFFFFFFFFFFFFFFFFF AND MUL OR SWAP1 SSTORE POP PUSH32 0xE4F1E239EF633924BA611260F27425B0855D45F598B69B49F08F8DD9B2CC0FAC PUSH1 0x0 DUP1 SLOAD SWAP1 PUSH2 0x100 EXP SWAP1 DIV PUSH20 0xFFFFFFFFFFFFFFFFFFFFFFFFFFFFFFFFFFFFFFFF AND PUSH1 0x1 PUSH1 0x0 SWAP1 SLOAD SWAP1 PUSH2 0x100 EXP SWAP1 DIV PUSH20 0xFFFFFFFFFFFFFFFFFFFFFFFFFFFFFFFFFFFFFFFF AND PUSH1 0x40 MLOAD PUSH2 0x12B SWAP3 SWAP2 SWAP1 PUSH2 0x1EA JUMP JUMPDEST PUSH1 0x40 MLOAD DUP1 SWAP2 SUB SWAP1 LOG1 PUSH2 0x2A6 JUMP JUMPDEST DUP3 DUP1 SLOAD PUSH2 0x144 SWAP1 PUSH2 0x245 JUMP JUMPDEST SWAP1 PUSH1 0x0 MSTORE PUSH1 0x20 PUSH1 0x0 KECCAK256 SWAP1 PUSH1 0x1F ADD PUSH1 0x20 SWAP1 DIV DUP2 ADD SWAP3 DUP3 PUSH2 0x166 JUMPI PUSH1 0x0 DUP6 SSTORE PUSH2 0x1AD JUMP JUMPDEST DUP3 PUSH1 0x1F LT PUSH2 0x17F JUMPI DUP1 MLOAD PUSH1 0xFF NOT AND DUP4 DUP1 ADD OR DUP6 SSTORE PUSH2 0x1AD JUMP JUMPDEST DUP3 DUP1 ADD PUSH1 0x1 ADD DUP6 SSTORE DUP3 ISZERO PUSH2 0x1AD JUMPI SWAP2 DUP3 ADD JUMPDEST DUP3 DUP2 GT ISZERO PUSH2 0x1AC JUMPI DUP3 MLOAD DUP3 SSTORE SWAP2 PUSH1 0x20 ADD SWAP2 SWAP1 PUSH1 0x1 ADD SWAP1 PUSH2 0x191 JUMP JUMPDEST JUMPDEST POP SWAP1 POP PUSH2 0x1BA SWAP2 SWAP1 PUSH2 0x1BE JUMP JUMPDEST POP SWAP1 JUMP JUMPDEST JUMPDEST DUP1 DUP3 GT ISZERO PUSH2 0x1D7 JUMPI PUSH1 0x0 DUP2 PUSH1 0x0 SWAP1 SSTORE POP PUSH1 0x1 ADD PUSH2 0x1BF JUMP JUMPDEST POP SWAP1 JUMP JUMPDEST PUSH2 0x1E4 DUP2 PUSH2 0x213 JUMP JUMPDEST DUP3 MSTORE POP POP JUMP JUMPDEST PUSH1 0x0 PUSH1 0x40 DUP3 ADD SWAP1 POP PUSH2 0x1FF PUSH1 0x0 DUP4 ADD DUP6 PUSH2 0x1DB JUMP JUMPDEST PUSH2 0x20C PUSH1 0x20 DUP4 ADD DUP5 PUSH2 0x1DB JUMP JUMPDEST SWAP4 SWAP3 POP POP POP JUMP JUMPDEST PUSH1 0x0 PUSH2 0x21E DUP3 PUSH2 0x225 JUMP JUMPDEST SWAP1 POP SWAP2 SWAP1 POP JUMP JUMPDEST PUSH1 0x0 PUSH20 0xFFFFFFFFFFFFFFFFFFFFFFFFFFFFFFFFFFFFFFFF DUP3 AND SWAP1 POP SWAP2 SWAP1 POP JUMP JUMPDEST PUSH1 0x0 PUSH1 0x2 DUP3 DIV SWAP1 POP PUSH1 0x1 DUP3 AND DUP1 PUSH2 0x25D JUMPI PUSH1 0x7F DUP3 AND SWAP2 POP JUMPDEST PUSH1 0x20 DUP3 LT DUP2 EQ ISZERO PUSH2 0x271 JUMPI PUSH2 0x270 PUSH2 0x277 JUMP JUMPDEST JUMPDEST POP SWAP2 SWAP1 POP JUMP JUMPDEST PUSH32 0x4E487B7100000000000000000000000000000000000000000000000000000000 PUSH1 0x0 MSTORE PUSH1 0x22 PUSH1 0x4 MSTORE PUSH1 0x24 PUSH1 0x0 REVERT JUMPDEST PUSH2 0x4F8 DUP1 PUSH2 0x2B5 PUSH1 0x0 CODECOPY PUSH1 0x0 RETURN INVALID PUSH1 0x80 PUSH1 0x40 MSTORE CALLVALUE DUP1 ISZERO PUSH2 0x10 JUMPI PUSH1 0x0 DUP1 REVERT JUMPDEST POP PUSH1 0x4 CALLDATASIZE LT PUSH2 0x41 JUMPI PUSH1 0x0 CALLDATALOAD PUSH1 0xE0 SHR DUP1 PUSH4 0x368B8772 EQ PUSH2 0x46 JUMPI DUP1 PUSH4 0x8DA5CB5B EQ PUSH2 0x62 JUMPI DUP1 PUSH4 0xF62639E5 EQ PUSH2 0x80 JUMPI JUMPDEST PUSH1 0x0 DUP1 REVERT JUMPDEST PUSH2 0x60 PUSH1 0x4 DUP1 CALLDATASIZE SUB DUP2 ADD SWAP1 PUSH2 0x5B SWAP2 SWAP1 PUSH2 0x244 JUMP JUMPDEST PUSH2 0x9E JUMP JUMPDEST STOP JUMPDEST PUSH2 0x6A PUSH2 0xEF JUMP JUMPDEST PUSH1 0x40 MLOAD PUSH2 0x77 SWAP2 SWAP1 PUSH2 0x2CD JUMP JUMPDEST PUSH1 0x40 MLOAD DUP1 SWAP2 SUB SWAP1 RETURN JUMPDEST PUSH2 0x88 PUSH2 0x113 JUMP JUMPDEST PUSH1 0x40 MLOAD PUSH2 0x95 SWAP2 SWAP1 PUSH2 0x2CD JUMP JUMPDEST PUSH1 0x40 MLOAD DUP1 SWAP2 SUB SWAP1 RETURN JUMPDEST DUP1 PUSH1 0x2 SWAP1 DUP1 MLOAD SWAP1 PUSH1 0x20 ADD SWAP1 PUSH2 0xB4 SWAP3 SWAP2 SWAP1 PUSH2 0x139 JUMP JUMPDEST POP PUSH32 0xB6B9255EF41B64A179028FA358D210C528409790C6DAF4907F41FCBA571E1112 DUP2 PUSH1 0x40 MLOAD PUSH2 0xE4 SWAP2 SWAP1 PUSH2 0x2E8 JUMP JUMPDEST PUSH1 0x40 MLOAD DUP1 SWAP2 SUB SWAP1 LOG1 POP JUMP JUMPDEST PUSH1 0x0 DUP1 SLOAD SWAP1 PUSH2 0x100 EXP SWAP1 DIV PUSH20 0xFFFFFFFFFFFFFFFFFFFFFFFFFFFFFFFFFFFFFFFF AND DUP2 JUMP JUMPDEST PUSH1 0x1 PUSH1 0x0 SWAP1 SLOAD SWAP1 PUSH2 0x100 EXP SWAP1 DIV PUSH20 0xFFFFFFFFFFFFFFFFFFFFFFFFFFFFFFFFFFFFFFFF AND DUP2 JUMP JUMPDEST DUP3 DUP1 SLOAD PUSH2 0x145 SWAP1 PUSH2 0x3F0 JUMP JUMPDEST SWAP1 PUSH1 0x0 MSTORE PUSH1 0x20 PUSH1 0x0 KECCAK256 SWAP1 PUSH1 0x1F ADD PUSH1 0x20 SWAP1 DIV DUP2 ADD SWAP3 DUP3 PUSH2 0x167 JUMPI PUSH1 0x0 DUP6 SSTORE PUSH2 0x1AE JUMP JUMPDEST DUP3 PUSH1 0x1F LT PUSH2 0x180 JUMPI DUP1 MLOAD PUSH1 0xFF NOT AND DUP4 DUP1 ADD OR DUP6 SSTORE PUSH2 0x1AE JUMP JUMPDEST DUP3 DUP1 ADD PUSH1 0x1 ADD DUP6 SSTORE DUP3 ISZERO PUSH2 0x1AE JUMPI SWAP2 DUP3 ADD JUMPDEST DUP3 DUP2 GT ISZERO PUSH2 0x1AD JUMPI DUP3 MLOAD DUP3 SSTORE SWAP2 PUSH1 0x20 ADD SWAP2 SWAP1 PUSH1 0x1 ADD SWAP1 PUSH2 0x192 JUMP JUMPDEST JUMPDEST POP SWAP1 POP PUSH2 0x1BB SWAP2 SWAP1 PUSH2 0x1BF JUMP JUMPDEST POP SWAP1 JUMP JUMPDEST JUMPDEST DUP1 DUP3 GT ISZERO PUSH2 0x1D8 JUMPI PUSH1 0x0 DUP2 PUSH1 0x0 SWAP1 SSTORE POP PUSH1 0x1 ADD PUSH2 0x1C0 JUMP JUMPDEST POP SWAP1 JUMP JUMPDEST PUSH1 0x0 PUSH2 0x1EF PUSH2 0x1EA DUP5 PUSH2 0x32F JUMP JUMPDEST PUSH2 0x30A JUMP JUMPDEST SWAP1 POP DUP3 DUP2 MSTORE PUSH1 0x20 DUP2 ADD DUP5 DUP5 DUP5 ADD GT ISZERO PUSH2 0x207 JUMPI PUSH1 0x0 DUP1 REVERT JUMPDEST PUSH2 0x212 DUP5 DUP3 DUP6 PUSH2 0x3AE JUMP JUMPDEST POP SWAP4 SWAP3 POP POP POP JUMP JUMPDEST PUSH1 0x0 DUP3 PUSH1 0x1F DUP4 ADD SLT PUSH2 0x22B JUMPI PUSH1 0x0 DUP1 REVERT JUMPDEST DUP2 CALLDATALOAD PUSH2 0x23B DUP5 DUP3 PUSH1 0x20 DUP7 ADD PUSH2 0x1DC JUMP JUMPDEST SWAP2 POP POP SWAP3 SWAP2 POP POP JUMP JUMPDEST PUSH1 0x0 PUSH1 0x20 DUP3 DUP5 SUB SLT ISZERO PUSH2 0x256 JUMPI PUSH1 0x0 DUP1 REVERT JUMPDEST PUSH1 0x0 DUP3 ADD CALLDATALOAD PUSH8 0xFFFFFFFFFFFFFFFF DUP2 GT ISZERO PUSH2 0x270 JUMPI PUSH1 0x0 DUP1 REVERT JUMPDEST PUSH2 0x27C DUP5 DUP3 DUP6 ADD PUSH2 0x21A JUMP JUMPDEST SWAP2 POP POP SWAP3 SWAP2 POP POP JUMP JUMPDEST PUSH2 0x28E DUP2 PUSH2 0x37C JUMP JUMPDEST DUP3 MSTORE POP POP JUMP JUMPDEST PUSH1 0x0 PUSH2 0x29F DUP3 PUSH2 0x360 JUMP JUMPDEST PUSH2 0x2A9 DUP2 DUP6 PUSH2 0x36B JUMP JUMPDEST SWAP4 POP PUSH2 0x2B9 DUP2 DUP6 PUSH1 0x20 DUP7 ADD PUSH2 0x3BD JUMP JUMPDEST PUSH2 0x2C2 DUP2 PUSH2 0x4B1 JUMP JUMPDEST DUP5 ADD SWAP2 POP POP SWAP3 SWAP2 POP POP JUMP JUMPDEST PUSH1 0x0 PUSH1 0x20 DUP3 ADD SWAP1 POP PUSH2 0x2E2 PUSH1 0x0 DUP4 ADD DUP5 PUSH2 0x285 JUMP JUMPDEST SWAP3 SWAP2 POP POP JUMP JUMPDEST PUSH1 0x0 PUSH1 0x20 DUP3 ADD SWAP1 POP DUP2 DUP2 SUB PUSH1 0x0 DUP4 ADD MSTORE PUSH2 0x302 DUP2 DUP5 PUSH2 0x294 JUMP JUMPDEST SWAP1 POP SWAP3 SWAP2 POP POP JUMP JUMPDEST PUSH1 0x0 PUSH2 0x314 PUSH2 0x325 JUMP JUMPDEST SWAP1 POP PUSH2 0x320 DUP3 DUP3 PUSH2 0x422 JUMP JUMPDEST SWAP2 SWAP1 POP JUMP JUMPDEST PUSH1 0x0 PUSH1 0x40 MLOAD SWAP1 POP SWAP1 JUMP JUMPDEST PUSH1 0x0 PUSH8 0xFFFFFFFFFFFFFFFF DUP3 GT ISZERO PUSH2 0x34A JUMPI PUSH2 0x349 PUSH2 0x482 JUMP JUMPDEST JUMPDEST PUSH2 0x353 DUP3 PUSH2 0x4B1 JUMP JUMPDEST SWAP1 POP PUSH1 0x20 DUP2 ADD SWAP1 POP SWAP2 SWAP1 POP JUMP JUMPDEST PUSH1 0x0 DUP2 MLOAD SWAP1 POP SWAP2 SWAP1 POP JUMP JUMPDEST PUSH1 0x0 DUP3 DUP3 MSTORE PUSH1 0x20 DUP3 ADD SWAP1 POP SWAP3 SWAP2 POP POP JUMP JUMPDEST PUSH1 0x0 PUSH2 0x387 DUP3 PUSH2 0x38E JUMP JUMPDEST SWAP1 POP SWAP2 SWAP1 POP JUMP JUMPDEST PUSH1 0x0 PUSH20 0xFFFFFFFFFFFFFFFFFFFFFFFFFFFFFFFFFFFFFFFF DUP3 AND SWAP1 POP SWAP2 SWAP1 POP JUMP JUMPDEST DUP3 DUP2 DUP4 CALLDATACOPY PUSH1 0x0 DUP4 DUP4 ADD MSTORE POP POP POP JUMP JUMPDEST PUSH1 0x0 JUMPDEST DUP4 DUP2 LT ISZERO PUSH2 0x3DB JUMPI DUP1 DUP3 ADD MLOAD DUP2 DUP5 ADD MSTORE PUSH1 0x20 DUP2 ADD SWAP1 POP PUSH2 0x3C0 JUMP JUMPDEST DUP4 DUP2 GT ISZERO PUSH2 0x3EA JUMPI PUSH1 0x0 DUP5 DUP5 ADD MSTORE JUMPDEST POP POP POP POP JUMP JUMPDEST PUSH1 0x0 PUSH1 0x2 DUP3 DIV SWAP1 POP PUSH1 0x1 DUP3 AND DUP1 PUSH2 0x408 JUMPI PUSH1 0x7F DUP3 AND SWAP2 POP JUMPDEST PUSH1 0x20 DUP3 LT DUP2 EQ ISZERO PUSH2 0x41C JUMPI PUSH2 0x41B PUSH2 0x453 JUMP JUMPDEST JUMPDEST POP SWAP2 SWAP1 POP JUMP JUMPDEST PUSH2 0x42B DUP3 PUSH2 0x4B1 JUMP JUMPDEST DUP2 ADD DUP2 DUP2 LT PUSH8 0xFFFFFFFFFFFFFFFF DUP3 GT OR ISZERO PUSH2 0x44A JUMPI PUSH2 0x449 PUSH2 0x482 JUMP JUMPDEST JUMPDEST DUP1 PUSH1 0x40 MSTORE POP POP POP JUMP JUMPDEST PUSH32 0x4E487B7100000000000000000000000000000000000000000000000000000000 PUSH1 0x0 MSTORE PUSH1 0x22 PUSH1 0x4 MSTORE PUSH1 0x24 PUSH1 0x0 REVERT JUMPDEST PUSH32 0x4E487B7100000000000000000000000000000000000000000000000000000000 PUSH1 0x0 MSTORE PUSH1 0x41 PUSH1 0x4 MSTORE PUSH1 0x24 PUSH1 0x0 REVERT JUMPDEST PUSH1 0x0 PUSH1 0x1F NOT PUSH1 0x1F DUP4 ADD AND SWAP1 POP SWAP2 SWAP1 POP JUMP INVALID LOG2 PUSH5 0x6970667358 0x22 SLT KECCAK256 AND 0xB0 ADDRESS 0x21 GASPRICE DUP10 CALLDATALOAD CHAINID DUP12 PUSH9 0xF918596C490AEE05B2 PUSH32 0xF1D748C082E2F328A559DFC464736F6C63430008040033000000000000000000 "
				},
				"gasEstimates": {
					"creation": {
						"codeDepositCost": "254400",
						"executionCost": "infinite",
						"totalCost": "infinite"
					},
					"external": {
						"owner()": "1211",
						"setMessage(string)": "infinite",
						"smartContract()": "1236"
					}
				},
				"methodIdentifiers": {
					"owner()": "8da5cb5b",
					"setMessage(string)": "368b8772",
					"smartContract()": "f62639e5"
				}
			},
			"storageLayout": {
				"storage": [
					{
						"astId": 3,
						"contract": "contracts/ganache.sol:ganache",
						"label": "owner",
						"offset": 0,
						"slot": "0",
						"type": "t_address"
					},
					{
						"astId": 5,
						"contract": "contracts/ganache.sol:ganache",
						"label": "smartContract",
						"offset": 0,
						"slot": "1",
						"type": "t_address"
					},
					{
						"astId": 8,
						"contract": "contracts/ganache.sol:ganache",
						"label": "message",
						"offset": 0,
						"slot": "2",
						"type": "t_string_storage"
					}
				],
				"types": {
					"t_address": {
						"encoding": "inplace",
						"label": "address",
						"numberOfBytes": "20"
					},
					"t_string_storage": {
						"encoding": "bytes",
						"label": "string",
						"numberOfBytes": "32"
					}
				}
			},
			"userdoc": {
				"kind": "user",
				"methods": {},
				"version": 1
			}
		}
	}
}